:020000040800F2
:1080000000C00020452501081D2401082124010885
:1080100025240108292401082D240108000000005E
:1080200000000000000000000000000071EF0008E8
:10803000312401080000000001F0000845F00008AC
:108040008D2501088D2501088D2501088D25010844
:108050008D2501088D2501088D2501088D25010834
:108060008D2501088D2501088D250108352401087D
:108070008D2501088D2501088D2501088D25010814
:108080008D2501088D2501088D2501088D25010804
:108090008D2501088D2501088D2501088D250108F4
:1080A0008D250108412401088D2501088D25010831
:1080B0008D2501088D2501088D2501084D24010815
:1080C000592401088D2501088D2501088D250108F9
:1080D0008D2501088D2501088D2501088D250108B4
:1080E0008D2501088D2501088D2501088D250108A4
:1080F0008D2501088D2501088D2501088D25010894
:108100008D2501088D2501088D2501088D25010883
:108110008D2501088D2501088D2501088D25010873
:108120008D2501088D2501088D2501088D25010863
:10813000000000000000000000000000000000003F
:10814000000000000000000000000000000000002F
:10815000000000000000000000000000000000001F
:10816000000000000000000000000000000000000F
:1081700000000000000000000000000000000000FF
:1081800000000000000000000000000000000000EF
:1081900000000000000000000000000000000000DF
:1081A00000000000000000000000000000000000CF
:1081B00000000000000000000000000000000000BF
:1081C00000000000000000000000000000000000AF
:1081D000000000000000000000000000000000009F
:0481E0005FF8E0F173
:1081F00010B5054C237833B9044B13B10448AFF3E1
:1082000000800123237010BDA800002000000000A2
:10821000A444010808B5034B1BB103490348AFF35D
:10822000008008BD00000000AC000020A44401084C
:1082300081F0004102E000BF83F0004330B54FEA17
:1082400041044FEA430594EA050F08BF90EA020F84
:108250001FBF54EA000C55EA020C7FEA645C7FEA17
:10826000655C00F0E2804FEA5454D4EB5555B8BF3A
:108270006D420CDD2C4480EA020281EA030382EAAB
:10828000000083EA010180EA020281EA0303362D3D
:1082900088BF30BD11F0004F4FEA01314FF4801C10
:1082A0004CEA113102D0404261EB410113F0004F22
:1082B0004FEA03334CEA133302D0524263EB4303D9
:1082C00094EA050F00F0A780A4F10104D5F1200E77
:1082D0000DDB02FA0EFC22FA05F2801841F10001D2
:1082E00003FA0EF2801843FA05F359410EE0A5F1A6
:1082F00020050EF1200E012A03FA0EFC28BF4CF0D7
:10830000020C43FA05F3C01851EBE37101F000458C
:1083100007D54FF0000EDCF1000C7EEB00006EEB99
:108320000101B1F5801F1BD3B1F5001F0CD3490823
:108330005FEA30004FEA3C0C04F101044FEA44527A
:1083400012F5800F80F09A80BCF1004F08BF5FEA01
:10835000500C50F1000041EB045141EA050130BDE1
:108360005FEA4C0C404141EB0101013C28BFB1F5F3
:10837000801FE9D291F0000F04BF01460020B1FA3E
:1083800081F308BF2033A3F10B03B3F120020CDA11
:108390000C3208DD02F1140CC2F10C0201FA0CF0EF
:1083A00021FA02F10CE002F11402D8BFC2F1200C54
:1083B00001FA02F120FA0CFCDCBF41EA0C0190400A
:1083C000E41AA2BF01EB0451294330BD6FEA040453
:1083D0001F3C1CDA0C340EDC04F11404C4F120023E
:1083E00020FA04F001FA02F340EA030021FA04F350
:1083F00045EA030130BDC4F10C04C4F1200220FAA7
:1084000002F001FA04F340EA0300294630BD21FAE4
:1084100004F0294630BD94F0000F83F4801306BFAA
:1084200081F480110134013D4EE77FEA645C18BF9E
:108430007FEA655C29D094EA050F08BF90EA020F35
:1084400005D054EA000C04BF1946104630BD91EA2D
:10845000030F1EBF0021002030BD5FEA545C05D130
:108460004000494128BF41F0004130BD14F580046F
:108470003CBF01F5801130BD01F0004545F0FE41E3
:1084800041F470014FF0000030BD7FEA645C1ABF18
:10849000194610467FEA655C1CBF0B46024650EA4F
:1084A000013406BF52EA033591EA030F41F400217B
:1084B00030BD00BF90F0000F04BF0021704730B501
:1084C0004FF4806404F132044FF000054FF00001D6
:1084D00050E700BF90F0000F04BF0021704730B597
:1084E0004FF4806404F1320410F0004548BF40426C
:1084F0004FF000013EE700BF42004FEAE2014FEAC1
:1085000031014FEA02701FBF12F07F4393F07F4F9B
:1085100081F06051704732F07F4208BF704793F09E
:108520007F4F04BF41F40021704730B54FF46074B1
:1085300001F0004521F000411CE700BF50EA0102B4
:1085400008BF704730B54FF000050AE050EA01025D
:1085500008BF704730B511F0004502D5404261EBCD
:1085600041014FF4806404F132045FEA915C3FF40E
:10857000D8AE4FF003025FEADC0C18BF03325FEAAB
:10858000DC0C18BF033202EBDC02C2F1200300FA5C
:1085900003FC20FA02F001FA03FE40EA0E0021FA81
:1085A00002F11444BDE600BF70B54FF0FF0C4CF46F
:1085B000E06C1CEA11541DBF1CEA135594EA0C0F21
:1085C00095EA0C0F00F0DEF82C4481EA030621EA5C
:1085D0004C5123EA4C5350EA013518BF52EA033597
:1085E00041F4801143F4801338D0A0FB02CE4FF049
:1085F0000005E1FB02E506F00042E0FB03E54FF079
:108600000006E1FB03569CF0000F18BF4EF0010E70
:10861000A4F1FF04B6F5007F64F5407404D25FEA6C
:108620004E0E6D4146EB060642EAC62141EA55511F
:108630004FEAC52040EA5E504FEACE2EB4F1FD0C61
:1086400088BFBCF5E06F1ED8BEF1004F08BF5FEADF
:10865000500E50F1000041EB045170BD06F0004691
:1086600046EA010140EA020081EA0301B4EB5C043E
:10867000C2BFD4EB0C0541EA045170BD41F4801136
:108680004FF0000E013C00F3AB8014F1360FDEBF5B
:10869000002001F0004170BDC4F10004203C35DA37
:1086A0000C341BDC04F11404C4F1200500FA05F3BA
:1086B00020FA04F001FA05F240EA020001F000425B
:1086C00021F0004110EBD37021FA04F642EB0601D1
:1086D0005EEA430E08BF20EAD37070BDC4F10C04FB
:1086E000C4F1200500FA04F320FA05F001FA04F2BF
:1086F00040EA020001F0004110EBD37041F10001AB
:108700005EEA430E08BF20EAD37070BDC4F12005B5
:1087100000FA05F24EEA020E20FA04F301FA05F21D
:1087200043EA020321FA04F001F0004121FA04F2C5
:1087300020EA020000EBD3705EEA430E08BF20EA95
:10874000D37070BD94F0000F0FD101F000464000CF
:1087500041EB010111F4801F08BF013CF7D041EA51
:10876000060195F0000F18BF704703F00046520055
:1087700043EB030313F4801F08BF013DF7D043EA26
:108780000603704794EA0C0F0CEA135518BF95EADC
:108790000C0F0CD050EA410618BF52EA4306D1D163
:1087A00081EA030101F000414FF0000070BD50EA82
:1087B000410606BF1046194652EA430619D094EA0C
:1087C0000C0F02D150EA013613D195EA0C0F05D1F6
:1087D00052EA03361CBF104619460AD181EA03014A
:1087E00001F0004141F0FE4141F470014FF0000002
:1087F00070BD41F0FE4141F4780170BD70B54FF09D
:10880000FF0C4CF4E06C1CEA11541DBF1CEA13551C
:1088100094EA0C0F95EA0C0F00F0A7F8A4EB0504FE
:1088200081EA030E52EA03354FEA013100F08880F5
:108830004FEA03334FF0805545EA131343EA1263BE
:108840004FEA022245EA111545EA10654FEA002673
:108850000EF000419D4208BF964244F1FD0404F52C
:10886000407402D25B084FEA3202B61A65EB030588
:108870005B084FEA32024FF480104FF4002CB6EB45
:10888000020E75EB030E22BFB61A754640EA0C00C5
:108890005B084FEA3202B6EB020E75EB030E22BF05
:1088A000B61A754640EA5C005B084FEA3202B6EB46
:1088B000020E75EB030E22BFB61A754640EA9C0005
:1088C0005B084FEA3202B6EB020E75EB030E22BFD5
:1088D000B61A754640EADC0055EA060E18D04FEA93
:1088E000051545EA16754FEA06164FEAC30343EA33
:1088F00052734FEAC2025FEA1C1CC0D111F4801F00
:108900000BD141EA00014FF000004FF0004CB6E7F8
:1089100011F4801F04BF01430020B4F1FD0C88BF97
:10892000BCF5E06F3FF6AFAEB5EB030C04BFB6EBA2
:10893000020C5FEA500C50F1000041EB045170BD95
:108940000EF0004E4EEA113114EB5C04C2BFD4EBC2
:108950000C0541EA045170BD41F480114FF0000E46
:10896000013C90E645EA060E8DE60CEA135594EAC2
:108970000C0F08BF95EA0C0F3FF43BAF94EA0C0FC5
:108980000AD150EA01347FF434AF95EA0C0F7FF43A
:1089900025AF104619462CE795EA0C0F06D152EA8E
:1089A00003353FF4FDAE1046194622E750EA410672
:1089B00018BF52EA43067FF4C5AE50EA41047FF483
:1089C0000DAF52EA43057FF4EBAE12E74FF0FF3CE8
:1089D00006E000BF4FF0010C02E000BF4FF0010CB9
:1089E0004DF804CD4FEA410C7FEA6C5C4FEA430C32
:1089F00018BF7FEA6C5C1BD001B050EA410C0CBF81
:108A000052EA430C91EA030F02BF90EA020F0020E2
:108A1000704710F1000F91EA030F58BF994208BF49
:108A200090422CBFD8176FEAE37040F00100704706
:108A30004FEA410C7FEA6C5C02D150EA013C07D15D
:108A40004FEA430C7FEA6C5CD6D152EA033CD3D0A8
:108A50005DF8040B704700BF8446104662468C46A2
:108A60001946634600E000BF01B5FFF7B7FF0028D5
:108A700048BF10F1000F01BD4DF808EDFFF7F4FFFE
:108A80000CBF012000205DF808FB00BF4DF808ED89
:108A9000FFF7EAFF34BF012000205DF808FB00BFAC
:108AA0004DF808EDFFF7E0FF94BF012000205DF8CE
:108AB00008FB00BF4DF808EDFFF7CEFF94BF012083
:108AC00000205DF808FB00BF4DF808EDFFF7C4FF7C
:108AD00034BF012000205DF808FB00BF4FEA410CC5
:108AE0007FEA6C5C02D150EA013C0AD14FEA430CA8
:108AF0007FEA6C5C02D152EA033C02D14FF00000E5
:108B000070474FF0010070474FEA4102B2F1E04375
:108B100024BFB3F5001CDCF1FE5C0DD901F0004C64
:108B20004FEAC0024CEA5070B2F1004F40EB8300B4
:108B300008BF20F00100704711F0804F21D113F1E0
:108B40003872BCBF01F00040704741F480114FEA19
:108B50005252C2F11802C2F1200C10FA0CF320FAA2
:108B600002F018BF40F001004FEAC1234FEAD323BF
:108B700003FA0CFC40EA0C0023FA02F34FEA430329
:108B8000CCE77FEA625307D150EA01331EBF4FF0B2
:108B9000FE4040F44000704701F0004040F0FE40CD
:108BA00040F40000704700BF80F0004002E000BFCA
:108BB00081F0004142001FBF5FEA410392EA030FC8
:108BC0007FEA226C7FEA236C6AD04FEA1262D2EB12
:108BD0001363C1BFD218414048404140B8BF5B4217
:108BE000192B88BF704710F0004F40F4000020F0B0
:108BF0007F4018BF404211F0004F41F4000121F0C6
:108C00007F4118BF494292EA030F3FD0A2F101020F
:108C100041FA03FC10EB0C00C3F1200301FA03F14D
:108C200000F0004302D5494260EB4000B0F5000F70
:108C300013D3B0F1807F06D340084FEA310102F12F
:108C40000102FE2A51D2B1F1004F40EBC25008BFE1
:108C500020F0010040EA03007047490040EB0000AB
:108C6000013A28BFB0F5000FEDD2B0FA80FCACF1AC
:108C7000080CB2EB0C0200FA0CF0AABF00EBC250D9
:108C800052421843BCBFD0401843704792F0000FC7
:108C900081F4000106BF80F400000132013BB5E71A
:108CA0004FEA41037FEA226C18BF7FEA236C21D090
:108CB00092EA030F04D092F0000F08BF08467047F5
:108CC00090EA010F1CBF0020704712F07F4F04D1C3
:108CD000400028BF40F00040704712F100723CBFD6
:108CE00000F50000704700F0004343F0FE4040F400
:108CF000000070477FEA226216BF08467FEA2363BE
:108D00000146420206BF5FEA412390EA010F40F4A8
:108D1000800070474FF0000304E000BF10F00043F4
:108D200048BF40425FEA000C08BF704743F09643DB
:108D300001464FF000001CE050EA010208BF7047F6
:108D40004FF000030AE000BF50EA010208BF70477D
:108D500011F0004302D5404261EB41015FEA010C92
:108D600002BF84460146002043F0B64308BFA3F18A
:108D70008053A3F50003BCFA8CF2083AA3EBC2536C
:108D800010DB01FA02FC634400FA02FCC2F120028B
:108D9000BCF1004F20FA02F243EB020008BF20F0C2
:108DA0000100704702F1200201FA02FCC2F1200228
:108DB00050EA4C0021FA02F243EB020008BF20EA1D
:108DC000DC7070474FF0FF0C1CEAD0521EBF1CEA4B
:108DD000D15392EA0C0F93EA0C0F6FD01A4480EA39
:108DE000010C400218BF5FEA41211ED04FF0006322
:108DF00043EA501043EA5111A0FB01310CF000404E
:108E0000B1F5000F3EBF490041EAD3715B0040EA73
:108E1000010062F17F02FD2A1DD8B3F1004F40EB43
:108E2000C25008BF20F00100704790F0000F0CF016
:108E3000004C08BF49024CEA502040EA51207F3ADA
:108E4000C2BFD2F1FF0340EAC250704740F40000B5
:108E50004FF00003013A5DDC12F1190FDCBF00F0A6
:108E600000407047C2F10002410021FA02F1C2F154
:108E7000200200FA02FC5FEA310040F1000053EAF0
:108E80004C0308BF20EADC70704792F0000F00F03E
:108E9000004C02BF400010F4000F013AF9D040EA44
:108EA0000C0093F0000F01F0004C02BF490011F4D8
:108EB000000F013BF9D041EA0C018FE70CEAD153D6
:108EC00092EA0C0F18BF93EA0C0F0AD030F0004C56
:108ED00018BF31F0004CD8D180EA010000F000400A
:108EE000704790F0000F17BF90F0004F084691F0C8
:108EF000000F91F0004F14D092EA0C0F01D1420202
:108F00000FD193EA0C0F03D14B0218BF084608D1CA
:108F100080EA010000F0004040F0FE4040F4000014
:108F2000704740F0FE4040F4400070474FF0FF0CA7
:108F30001CEAD0521EBF1CEAD15392EA0C0F93EAEE
:108F40000C0F69D0A2EB030280EA010C49024FEA40
:108F5000402037D04FF0805343EA111143EA1013F9
:108F60000CF000408B4238BF5B0042F17D024FF4B1
:108F7000000C8B4224BF5B1A40EA0C00B3EB510F8C
:108F800024BFA3EB510340EA5C00B3EB910F24BF75
:108F9000A3EB910340EA9C00B3EBD10F24BFA3EBFA
:108FA000D10340EADC001B0118BF5FEA1C1CE0D1C2
:108FB000FD2A3FF650AF8B4240EBC25008BF20F075
:108FC000010070470CF0004C4CEA50207F32C2BFC9
:108FD000D2F1FF0340EAC250704740F400004FF066
:108FE0000003013A37E792F0000F00F0004C02BF97
:108FF000400010F4000F013AF9D040EA0C0093F061
:10900000000F01F0004C02BF490011F4000F013BBA
:10901000F9D041EA0C0195E70CEAD15392EA0C0F22
:1090200008D142027FF47DAF93EA0C0F7FF470AF5A
:10903000084676E793EA0C0F04D14B023FF44CAF9D
:1090400008466EE730F0004C18BF31F0004CCAD132
:1090500030F000427FF45CAF31F000437FF43CAF6E
:109060005FE700BF4FF0FF3C06E000BF4FF0010C90
:1090700002E000BF4FF0010C4DF804CD4FEA400272
:109080004FEA41037FEA226C18BF7FEA236C11D0BC
:1090900001B052EA530C18BF90EA010F58BFB2EB6F
:1090A000030088BFC81738BF6FEAE17018BF40F0EF
:1090B000010070477FEA226C02D15FEA402C05D1A3
:1090C0007FEA236CE4D15FEA412CE1D05DF8040B28
:1090D000704700BF844608466146FFE70FB5FFF7BB
:1090E000C9FF002848BF10F1000F0FBD4DF808ED73
:1090F000FFF7F4FF0CBF012000205DF808FB00BF64
:109100004DF808EDFFF7EAFF34BF012000205DF8BD
:1091100008FB00BF4DF808EDFFF7E0FF94BF01200A
:1091200000205DF808FB00BF4DF808EDFFF7D2FF07
:1091300094BF012000205DF808FB00BF4DF808ED4A
:10914000FFF7C8FF34BF012000205DF808FB00BF17
:109150004FEA4002B2F1FE4F0FD34FF09E03B3EB44
:1091600012620DD94FEA002343F0004310F0004F84
:1091700023FA02F018BF404270474FF000007047DA
:1091800012F1610F01D1420205D110F0004008BF79
:109190006FF0004070474FF00000704742000ED261
:1091A000B2F1FE4F0BD34FF09E03B3EB126209D422
:1091B0004FEA002343F0004323FA02F070474FF0D8
:1091C0000000704712F1610F01D1420202D14FF04D
:1091D000FF3070474FF00000704700BF074A08B5E6
:1091E0001368032043F01003136000F003FB00201A
:1091F00009F0D6F808F0A2FF002008BD00200240C8
:10920000034A044B11681B780B441360704700BF7E
:109210001C30002000000020014B1868704700BF80
:109220001C300020002800F08880F8B5836A0446CE
:10923000002B65D023689A68D00742D4A26AD20670
:1092400058D4A26A534922F4885222F0020242F012
:1092500002028B42A262E069626868D0267BA16844
:1092600042EA4602B1F5807F42EA0002207D4DD0FD
:1092700001290CBF4FF480770027012869D05D6871
:10928000454825F469453D435D609D68284010438D
:109290009860012947D00020D96A404D21F470011F
:1092A0000143D9629B681D40AA4248D00120A36AAD
:1092B00023F0120343F01003A362E36A0343E36263
:1092C000F8BD9A6822F001029A60FFF7A5FF0546F3
:1092D00023689A68D107B1D5FFF79EFF431B022B85
:1092E000F6D9A36A43F01003A362E36A43F00103D3
:1092F000E362A36AA36A012043F01003A362F8BDEE
:10930000C36280F8243008F041FF93E701281FD0A2
:109310005868214920F4694040F48070586098688A
:10932000014011439960216901390805B4E7B0F59E
:10933000402F08BF4FF4002090E701207047002025
:10934000E062A36A23F0030343F00103A362F8BDC4
:109350000F46BEB1A06A40F02000A062E06A40F073
:109360000100E0625D680C4825F469453D435D609D
:109370009D68B1F5807F00EA050040EA0200986030
:1093800087D1D0E7A069451E47EA453545F4006717
:10939000E8E700BF003C0140FDF7E1FFFE0E1FFFC4
:1093A000436A9A6A12F0500F0FD19A6A196842F410
:1093B000007210B59A628A6802F46022B2F5602FDA
:1093C00006D0184608F02EFB10BD1B6A1B6B184711
:1093D0001A7B002AF5D19A6A22F480729A629A6AFC
:1093E000D204EED49A6A42F001029A62E9E700BF21
:1093F000704700BF08B5406AFFF7FAFF08BD00BF1D
:10940000704700BF406A08B5836A43F04003836237
:10941000C36A43F00403C362FFF7F2FF08BD00BF55
:109420000246002070B492F8243083B0012B0190E2
:109430005BD0012382F824304B681F26062B14686A
:109440002DD90C2B03EB830344D8256B0868233BF1
:109450009E4025EA060500FA03F32B4323630928FF
:109460002BD9072600EB40038D681E3BE1689E4028
:109470009D4021EA0603A0F110012B430129E3607E
:1094800026D82A4B9C4234D00120936A43F0200313
:109490009362002382F8243003B070BC704703EB62
:1094A00083030868656B053B9E4025EA060500FAC4
:1094B00003F32B4309286363D3D8072500EB40004F
:1094C000896823698540814023EA050008432061BB
:1094D0000020DEE7E56A0868413B9E4025EA060574
:1094E00000FA03F32B43E362B9E7022003B070BC38
:1094F0007047A3681B02EBD4A368102843F4000351
:10950000A360E5D10A4B0B491B68A1FB03139B0C1D
:1095100003EB83035B000193019B002BD8D0019BDD
:10952000013B0193019B002BF9D1D1E700240140BD
:109530003C00002083DE1B43002370B5026882B02C
:1095400001939368DB0721D4184B05461B68184824
:109550009168A0FB030341F001019B0C9160019312
:10956000019B2BB1019B013B0193019B002BF9D186
:10957000FFF752FE064604E0FFF74EFE831B022B68
:1095800007D82B689C6814F00104F5D0002002B0C5
:1095900070BD0120AB6A85F8244043F01003AB6234
:1095A000EB6A0343EB6202B070BD00BF3C000020D9
:1095B00083DE1B43F8B50446404D00680F46A842C1
:1095C00016465CD03E4B984259D094F82430012B7B
:1095D00062D00123204684F82430FFF7ADFF054612
:1095E000002854D1A06A2168354B20F4706020F027
:1095F000010040F480709942A06250D0A36A23F425
:109600008013A3624B685A0505D5A36A23F440531F
:1096100043F48053A362A36A6FF0020213F48053F1
:1096200018BFE36A206A18BF23F00603E362002331
:10963000DFF894C084F82430224B4C31C0E90AC3CF
:10964000DFF888C03346C0F830C041F84C2C51F8E0
:10965000446C3A4646F4807641F8446C00F07AF95E
:10966000236828469A6802F46022B2F5602F9A684F
:109670000CBF42F4A00242F480129A60F8BD0F4B76
:109680005B6813F4702FA0D001252846F8BD002395
:1096900084F824302846F8BD02252846F8BDA3F5F5
:1096A00080635A6812F4702FA8D0A26A42F4801224
:1096B000A2625B685B05AED5A7E700BF002401404E
:1096C00000280140F5930008A193000805940008C4
:1096D00038B503689A68D20701D4002038BD9A686B
:1096E000044622F001029A60FFF796FD05462368C2
:1096F0009B68DB07F1D5FFF78FFD431B022BF6D9E3
:109700000120A36A43F01003A362E36A0343E36208
:1097100038BD00BF002270B590F8243082B0012B14
:10972000019253D0012380F824300446FFF7D0FF84
:10973000054628B10023284684F8243002B070BDC5
:10974000A36A2B4A23F4885323F0020343F0020355
:10975000A3620220166802F0BFF9B6FBF0F67600AD
:109760000196019B2BB1019B013B0193019B002BB7
:10977000F9D12046FFF7E0FE2268936843F0080322
:109780009360FFF749FD064604E0FFF745FD831BA4
:109790000A2B1FD823689A681207F6D49A6842F0F9
:1097A00004029A60FFF738FD064604E0FFF734FD37
:1097B000801B0A280ED823689B685B07F6D4A36A2F
:1097C00023F0030343F00103A362B3E70225284615
:1097D00002B070BD012500222846A36A84F8242027
:1097E00023F0120343F01003A36202B070BD00BF68
:1097F0003C0000204FF6FF01064A0302D06803F444
:10980000E0630840034343F0BF6343F40033D36095
:10981000704700BF00ED00E0194B30B4DB68C3F3C4
:109820000223C3F10705042D03F1040428BF042516
:10983000062C19D94FF0FF34033B9C4022EA040266
:109840004FF0FF34AC4021EA04019940002841EA7E
:1098500002010CDB090100F16040C9B200F5614072
:1098600080F8001330BC704700221346E8E7054B30
:1098700000F00F000901C9B20344197630BC7047EB
:1098800000ED00E0FCEC00E0002807DB012300F025
:109890001F01034A8B40400942F82030704700BF47
:1098A00000E100E000280CDB012300F01F01054A65
:1098B00040098B40203042F82030BFF34F8FBFF378
:1098C0006F8F704700E100E0002834D003461B4A48
:1098D0000068F0B4904225D919491A4A0144A2FB04
:1098E0000121194F090989004FF48075D3E9012638
:1098F00000243243DE6819643243D3E90461324301
:109900009E690A4301683243DE6921F47F51324384
:1099100021F030010A43DF6302601D8420469C630E
:10992000F0BC70470949074A0144A2FB012109091B
:10993000074F8900D8E70120704700BF07040240A5
:10994000F8FBFDBFCDCCCCCC00040240F8FFFDBF3E
:1099500000000240F0B4044690F82000012838D0FE
:10996000012594F8210084F82050A84205D0002356
:1099700084F820300220F0BC7047022700262568BA
:1099800084F82170A663276C2E68B84026F0010683
:10999000E76B2E60666878606B60E36A102E0BBF21
:1099A000AA60A960E960EA6053B12B6843F00E0336
:1099B0002B602B68002043F001032B60F0BC704744
:1099C0002B6823F004032B602B6843F00A032B6001
:1099D000EFE70220F0BC704708B590F8212003465D
:1099E000022A03D0042201209A6308BD0268454878
:1099F0001168824221F00E011160116821F001010D
:109A00001160414924D98A4255D014318A425ED02E
:109A100014318A425DD014318A4253D014318A42C3
:109A200060D014318A4263D0824267D001F56771F9
:109A30008A4240D014318A4249D014318A4248D0F7
:109A400014318A4214BF4FF480324FF4805233E015
:109A50008A4222D014318A4237D014318A423BD014
:109A600014318A422BD014318A4238D014318A42C0
:109A70003BD082423FD001F567718A420DD014314C
:109A80008A4222D014318A4226D014318A4214BF2D
:109A90004FF480324FF4805200E001221B494A60AB
:109AA0004FF480715A6B19841AB118469047002000
:109AB00008BD104608BD012215494A60F0E74FF481
:109AC0008052EBE74FF48052F6E71022E6E71022CF
:109AD000F2E74FF48072EFE74FF48072DEE74FF465
:109AE0008032DBE74FF48032E6E74FF48012D5E7AF
:109AF0004FF48012E0E74FF08072CFE74FF08072B2
:109B0000DAE700BF80000240080002400000024087
:109B100000040240042270B4D0E90F613468036885
:109B20008A4022421D6842D06A0740D51A689106D1
:109B300003D41A6822F004021A609B4A9B4993429C
:109B400040F290808B4200F0EE8014318B4200F0A6
:109B5000F28014318B4200F0E18014318B4200F02E
:109B6000F58014318B4200F0FD8014318B4200F0FF
:109B70000281934200F00B8102F56272934200F081
:109B8000D2801432934200F0D6801432934200F017
:109B9000C5801432934214BF4FF480234FF48043A6
:109BA000834A5360C36A002B5AD170BC70470222AB
:109BB0008A4022423FD0AA073DD51A68910606D4B2
:109BC00001211A6822F00A021A6080F82110764AF0
:109BD000764993426DD98B4200F0A78014318B42B5
:109BE00000F0978014318B4200F0A78014318B4233
:109BF00000F0AF8014318B4200F0BA8014318B42F8
:109C000000F0C280934200F0CB8002F56272934272
:109C100000F08B80143293427BD01432934200F0D8
:109C20008C801432934214BF4FF400324FF4005230
:109C30005F4B5A6062E008228A402242B5D02A0770
:109C4000B3D501244FF480751A6804FA01F122F0AB
:109C50000E021A60036B716084630584002BA4D02C
:109C600070BC18478B425CD014318B4261D01431E8
:109C70008B4250D014318B4265D014318B426ED060
:109C800014318B427AD0934200F08480494A934247
:109C900047D0143293424CD0143293423BD014320A
:109CA000934214BF4FF480234FF48043424A5360E1
:109CB00078E78B423BD014318B4228D014318B4251
:109CC0003ED014318B4247D014318B424DD01431E9
:109CD0008B4256D0934260D0364A934227D01432FA
:109CE000934214D0143293422AD01432934214BFB8
:109CF0004FF400324FF400522F4B5A600022836A17
:109D000080F82020002B3FF450AF70BC1847202271
:109D1000F2E720228CE74FF48063C7E74FF48063BB
:109D20003EE70423C2E704233AE7022280E7022247
:109D3000E2E74023BAE7402332E74FF4007277E7C7
:109D40004FF40072D8E74FF48043AFE74FF48043FD
:109D500026E74FF400526BE74FF40052CCE74FF484
:109D60008023A3E74FF480231AE74FF40032C3E7C0
:109D70004FF400325CE74FF4800311E74FF48003A7
:109D800094E74FF40012B7E74FF4001250E74FF09A
:109D9000806305E74FF0806388E74FF00072ABE720
:109DA0004FF0007244E700BF80000240080002400C
:109DB00000040240080402400000024090F8210024
:109DC000704700BF2DE9F04F0C6885B0002C00F003
:109DD000A2800026DFF828C23346DFF82882824FAF
:109DE000DFF824E204E0013334FA03F200F0938058
:109DF00001229A4032EA040902EA0405F3D14C68D0
:109E0000122C00F28B80122C0CD8DFE804F093C6E1
:109E1000C30A0B0B0B0B0B0B0B0B0B0B0B0B0BC026
:109E2000BD000026FF2D00F28C8081464FEA830A98
:109E30000F24D9F8002004FA0AFB22EA0B0206FAE2
:109E40000AFA42EA0A02C9F80020D1F8049019F08F
:109E5000805F00F09780DCF818A023F003024AF03E
:109E6000010ACCF818A0DCF818A002F180420AF030
:109E7000010ACDF80CA002F5803203F0030ADDF8E8
:109E80000CB04FEA8A0AD2F808B004FA0AF42BEAB6
:109E90000404404501941BD0544CA04200F088803B
:109EA000534CA0427BD0534CA04200F08A80524CCD
:109EB000A04200F08F80514CA0420CBF4FF0050B28
:109EC0004FF0060B019C0BFA0AFA44EA0A040194CB
:109ED000019C19F4803F94603A6814BF2A43AA4356
:109EE0003A607A6819F4003F14BF2A43AA437A60A3
:109EF000BA6819F4801F14BF2A43AA43BA6019F440
:109F0000001FFA683BD01543FD600C68013334FA3A
:109F100003F27FF46DAF05B0BDE8F08F744509D052
:109F200016D9DFF8E8904C4504D009F580394C4546
:109F30007FF478AF8C68DCB9FF2D4FF004067FF614
:109F400074AF4FEA830AAAF1200A00F104096FE70F
:109F5000DFF8BC904C45EDD009F570294C45E9D0AF
:109F6000A9F580194C457FF45DAF8C68002CE3D0D7
:109F7000012C4FF008060CBF0261426152E722EA51
:109F80000505FD600C682EE7CE680C364AE7CE6802
:109F9000043647E7CE68083644E7CE6842E74FF01C
:109FA000020B019C0BFA0AFA44EA0A0401948FE7B7
:109FB0004FF0010B019C0BFA0AFA44EA0A040194DF
:109FC00086E74FF0030B019C0BFA0AFA44EA0A04F5
:109FD00001947DE74FF0040B019C0BFA0AFA44EA66
:109FE0000A04019474E700BF00040140000C014022
:109FF000001001400014014000180140001C014005
:10A000000010024000080140000022100000311042
:10A0100000001210002900F083802DE9F04F00228B
:10A020004FF0010C4FF00F0EDFF80C813D4FDFF8C1
:10A030000C9183B013E006464FEA820B0424336888
:10A040000EFA0BFA04FA0BF423EA0A0323433360F3
:10A05000C3682B40C360013231FA02F34BD00CFAD3
:10A0600002F313EA0104F6D022F0030606F180465B
:10A0700006F5803602F00303B5689B000EFA03FA7A
:10A080000AEA05054045019533D0484536D0264DAE
:10A09000A84236D0254DA84238D0254DA8423AD006
:10A0A000244DA84214BF4FF0060B4FF0050B0BFADE
:10A0B00003F3019D9D426FEA040513D1B36823EABF
:10A0C0000A03B3603B6823EA04033B607B6823EA2E
:10A0D00004037B60BB6823EA0403BB60FB6823EADC
:10A0E0000403FB60FF2CA6D99400A4F1200B061DED
:10A0F000A4E70023DDE703B0BDE8F08F0CFA03F31B
:10A10000D7E74FF0020B0BFA03F3D2E74FF0030B44
:10A110000BFA03F3CDE74FF0040B0BFA03F3C8E798
:10A12000704700BF000401400010014000140140CE
:10A1300000180140001C014000080140000C0140D3
:10A140008368194214BF01200020704702B9090436
:10A1500001617047C3680B4214BF416101617047E0
:10A16000002800F0B680F8B590F83D30044603F0C2
:10A17000FF02002B00F095802423226884F83D30F4
:10A18000136823F00103136001F0E6FB6568524B8E
:10A190009D4251D8514B984240F281806D00421E41
:10A1A000B2FBF5F240F6FC7623684D491D68A1FB31
:10A1B000001025F400451D605968013221F03F016F
:10A1C00041EA90415960196A800C21F03F01013049
:10A1D00008431862D969324221F44F4121F0FF014E
:10A1E00064D10422002520260A43DA611968D4E9E3
:10A1F000072021F0C00102430A431A609968D4E99C
:10A20000030221F4034121F0FF0102430A439A6053
:10A21000D968D4E9052021F0FF0102430A43DA603E
:10A220001A68284642F001021A60256484F83D60ED
:10A23000256384F83E50F8BD2A4B98422FD94FF43D
:10A240009671274E2368A6FB00261A68B70C01FBFF
:10A2500007F122F400421A605A68234F22F03F02AD
:10A26000A7FB017142EA96425A601A6A89090131D4
:10A2700022F03F0211431962D969A66821F44F41C7
:10A2800021F0FF01AEB9013805EB4502B0FBF2F257
:10A290000132C2F30B02D2B142F40042A2E7012024
:10A2A000F8BD80F83C2007F0BFFF65E7C2F30B0262
:10A2B00098E705EB850202EB8205421EB2FBF5F240
:10A2C0000132C2F30B0212B142F440428AE701228A
:10A2D00088E70120704700BFA08601007F841E0030
:10A2E00083DE1B43FF083D00D34D6210B0B1242331
:10A2F000026810B580F83D301368044623F001036E
:10A30000136007F0D3FF0023236484F83C3084F803
:10A310003D30236384F83E30184610BD012070475D
:10A32000F0B5002483B00194054690F83D00202844
:10A3300025D12B482B4C0068C008A4FB0040000A24
:10A3400000EB800000EB8000019003E02C68A06926
:10A35000860717D5019C013C019401980028F5D18E
:10A360002023286385F83C0085F83D3085F83E00C1
:10A3700001202B6C43F020032B6403B0F0BD0220BE
:10A3800003B0F0BD95F83C000128F8D02068C00764
:10A3900003D4206840F00100206000264FF0210E19
:10A3A0004FF0100C3046276827F40067276085F8C7
:10A3B0003DE085F83EC02E646B850B4B6F8DEB62E4
:10A3C000696423686A6243F480732F85236085F88B
:10A3D0003C60636843F4E063636003B0F0BD00BFBA
:10A3E0003C00002089B5F8140000FFFFF0B5002400
:10A3F00083B00194054690F83D00202825D12D48D2
:10A400002D4C0068C008A4FB0040000A00EB80004F
:10A4100000EB8000019003E02C68A069860717D547
:10A42000019C013C019401980028F5D12023286368
:10A4300085F83C0085F83D3085F83E0001202B6C06
:10A4400043F020032B6403B0F0BD022003B0F0BD45
:10A4500095F83C000128F8D02068C00703D4206894
:10A4600040F00100206000264FF0220E4FF0100C4B
:10A470003046276827F40067276085F83DE085F8B7
:10A480003EC02E646B850D4B6F8DEB626964236853
:10A490006A6243F480632F852360236843F48073EA
:10A4A000236085F83C60636843F4E063636003B055
:10A4B000F0BD00BF3C00002089B5F8140000FFFF8C
:10A4C000704700BF704700BF704700BF704700BFB4
:10A4D000704700BF704700BF002370B5406A026834
:10A4E00090F83D101468D0E90D6524F48064B362DF
:10A4F000AB62146043851468736324F001046B63DA
:10A50000146090F83D40602C18D0C9B201F02801C9
:10A51000282907D0202280F83D2080F83E3006F020
:10A5200011F870BD146844F001041460146844F418
:10A5300080641460036380F83D10F0E7202280F807
:10A540003D2080F83E30036405F0FEFF70BD00BF83
:10A5500070B590F83D2090F83E300446102BD2B2F2
:10A5600044D002F0280128293AD0236859680E0502
:10A570001FD50022226384F83E205A6812F400623C
:10A580001DD05A68606B22F400625A6090F8213046
:10A59000012B36D0434B4363FFF71EFA00284DD101
:10A5A00094F83D30226CDBB2520701D5282B51D0F4
:10A5B00070BD602ADDD0202284F83D20D9E794F8D0
:10A5C0003D10602958D05A69510605D51A69636A49
:10A5D0001A70636A01336362204605F0B3FFDFE758
:10A5E00000222368226384F83D10C6E7222AB8D1EE
:10A5F00003681A6822F400621A605A681205B8D417
:10A60000D9E7A06B274B4363FFF7E6F90028C7D0D3
:10A6100023685A69550606D51A69636A1A70626A10
:10A6200023680132626220211A68A06B22F00102C5
:10A630001A6084F83D10436B9847B1E720212268E7
:10A64000606B136823F00103136084F83D10436BC3
:10A650009847A5E7002220252168134E4B68204625
:10A6600023F4E0634B60E662226384F83D5084F893
:10A670003E20FFF72BFF70BD202184F83D1022649F
:10A680005A69500606D51A69636A1A70626A2368A5
:10A69000013262621A68204622F001021A6005F057
:10A6A00053FF7DE7D9A400080000FFFF70B5044602
:10A6B00003688CB05868E66A94F83E1094F83D2020
:10A6C000102922D0CDB2402D1FD0216CD2B200294A
:10A6D00000F093800025596911F0020FC1F3400684
:10A6E00055D0860556D5226C02B19D6994F83D205F
:10A6F00002F02802282A00F02B826FF002010022CB
:10A70000596184F83C200CB070BD99695A69D5072D
:10A710001AD4B6F52A0FF6D0B6F12A4FF3D01607A1
:10A720006ED5850540F18480626C616BD2B21A618E
:10A73000002900F0FE818A6A002A00F0EE815A6842
:10A7400042F400625A60DEE785056FD5E26AB2F531
:10A750002A0F00F0FA81E26AB2F12A4F04BF082200
:10A76000E26294F83E20402A00F0E8812269B2F5C6
:10A77000804F00F0BF81226D002A40F0FC81626CA6
:10A78000D21102F0060242F0F0021A61BBE7CD06D8
:10A7900000F1838002F0F702212A00F0FC804E06CF
:10A7A00040F13981450540F13681490700F1368194
:10A7B00094F83D10628DC9B292B2002AA3D01A69F2
:10A7C000636A1A70638D626A013B9BB26385638D15
:10A7D00001329BB26262002B95D12A2993D12225A6
:10A7E000282122682046536823F480635360256340
:10A7F00084F83D10FFF766FE85E79D6959696BE7B0
:10A80000960715D5850513D594F83E20E06A256B8B
:10A8100094F83D10D2B2222900F0C48100220A929D
:10A820005A690A929B690A930A9B6CE71507E7D558
:10A8300011F0040F596800F0FA800D053FF563AF81
:10A84000110600F1338151077FF55DAF82057FF579
:10A850005AAFE16A94F83D20212A7FF454AF628D0B
:10A8600092B2002A40F0CD80082900F06A822029A7
:10A8700000F0678211F5803F00F0638211262025E9
:10A880002046596821F4E0615960266384F83E202F
:10A8900084F83D5005F04AFE35E785057FF57AAF2F
:10A8A00094F83D505A68EDB222F4E0625A600B967B
:10A8B0005A690B921A6842F001021A600B9A1A68E0
:10A8C00022F480621A605A68110521D505F0F7025A
:10A8D000222A00F08481606B0268526892B262851D
:10A8E000628D92B21AB1226C42F0040222645A685C
:10A8F00022F400625A60FFF761FA012808D0606B09
:10A90000A34B4363FFF768F810B1606B436B984744
:10A91000638D9BB213B323685A6952070AD51A692B
:10A92000636A1A70628D636A013A591C92B2236895
:10A93000628561625A69560609D51A69636A1A7096
:10A94000638D626A013B9BB2013263856262638DF3
:10A950009BB21BB1236C43F004032364236C002BD4
:10A9600040F0E1802A2D00F06D8194F83D30282BD5
:10A9700000F05B81236B222B02D0222D7FF4C3AE2B
:10A98000002320222363204684F83D2084F83E30B3
:10A99000FFF798FDB7E60D0628D5460526D54D07E5
:10A9A00027D494F83D00618DC0B289B200293FF4EC
:10A9B000AAAE656A15F8011B1961618D65620139DE
:10A9C00089B26185618D89B200297FF49CAE292806
:10A9D0007FF499AE28255968204621F4806159609A
:10A9E000226384F83D50FFF76BFD8CE649077FF545
:10A9F0008AAE82057FF587AE628D92B2002A3FF45F
:10AA000082AE626A12F8011B1961638D6262013BBA
:10AA10009BB2638577E64A077FF575AE86057FF5BD
:10AA200072AE628D92B2002A3FF46DAE1BE00E054D
:10AA30003FF569AE550621D541051FD5560740F1B2
:10AA4000318181051CD5E16A628D92B2042A00F041
:10AA50004881628D92B2032A00F06481628D92B2C5
:10AA6000022A00F0A8811A69636A1A70638D626A0B
:10AA7000013B9BB201326385626244E65507E0D434
:10AA800044490A780132D2B2142A0A7005D900204A
:10AA90001A68087042F400421A601A6812047FF5BE
:10AAA00032AE1A6822F400421A602CE646057FF5A1
:10AAB000CAAE55073FF5CAAE94F83D20208D94F8F4
:10AAC0003E10D2B2E56AC9B2002840F01981212AAD
:10AAD00000F0E78140297FF416AE222A7FF413AEFE
:10AAE000628D92B2002A40F09F815A6822F48062FF
:10AAF0005A6008E694F83D20212A626C16BF42F0A5
:10AB0000010202F0FE02D2B21A61626B002A00F06A
:10AB10008780926A002A7FF412AEA26B926A002AA2
:10AB20007FF40DAEEFE520460CB0BDE87040FFF7B6
:10AB30000FBDA26B002A7FF4FEADE4E5226D5ABB87
:10AB4000626C02F0FE021A61DDE50122E26208E6B3
:10AB50005A686FEA950122F480625A6000232E063B
:10AB6000204654BFA289228B01F0010184F83C30B9
:10AB7000FFF7AAFCC7E5226D012A7FF4C4AD626C21
:10AB8000D21102F0060242F0F1021A61BBE500BFE9
:10AB9000D9A40008C4000020626C42F00102D2B2C5
:10ABA0001A61B0E5216D11B9402A00F0A280226D32
:10ABB00022B92169B1F5404F00F0A680628D92B2B2
:10ABC000002A47D102925A6902929A690292029A25
:10ABD0001A6842F400721A600023236593E5A06BA3
:10ABE0000268526892B26285628D92B21AB1226C8A
:10ABF00042F0040222645A6822F400625A60FFF7AD
:10AC0000DDF801283FF484AEA06BB34B4363FEF73D
:10AC1000E3FE00283FF47CAEA06B436B984777E6D9
:10AC2000A16B00297FF475AF6DE500232022AB49AD
:10AC30002046E162236384F83D2084F83E30FFF72C
:10AC400045FC60E528222363204684F83D20FFF779
:10AC500039FC8AE6628D92B2012A00F08A80628D08
:10AC600092B2022A00F050811A6842F480621A609F
:10AC70005A6812050ED510F5803F07D001381F28FD
:10AC800008D8974A22FA00F0C60703D55A6842F45A
:10AC900080525A60002209925A6909929B6909936D
:10ACA000099B99E794F83D20222A7FF42CAD628D10
:10ACB00092B2032A40F2CD801A69636A1A70638DDA
:10ACC000626A013B9BB26385638D01329BB2032BA9
:10ACD00062627FF418AD2268536823F48063536086
:10ACE00011E55A68616A22F480625A601B690B7030
:10ACF000BCE600915A6900929B690093009B02E5B3
:10AD0000212A3FF4EDAEE5E601925A6901929A6973
:10AD10000192019A1A6842F480721A60236D01331D
:10AD20002365F0E45A68042922F480625A603FF4F3
:10AD30009AAE02293FF497AE1A6822F480621A6034
:10AD400091E600222020596821F4E06159601968D9
:10AD500041F400711960226384F83D0094F83E309C
:10AD60002046402B84F83E207FF494ADFFF7B0FBE3
:10AD7000C9E410F5803F00F0E880082800F0B480B6
:10AD8000202800F0B180122D00F02081102800F260
:10AD90001F81544A22FA00F0C20740F119811A6853
:10ADA00042F480621A60002205925A6905929B69FA
:10ADB0000593059B10E701291A6800F0C28010294D
:10ADC00000F0BF80042900F0F280022900F0EF803B
:10ADD00042F400721A6020201A69636A1A70638D47
:10ADE0002268013B9BB26385636A1269591C6162E8
:10ADF0005A70638D2168013B9BB263854B68626A20
:10AE000023F44073013262624B6084F83D0094F891
:10AE10003E30402B3DD00022122384F83E202046B5
:10AE2000236305F089FB6EE494F83E20402A7FF40A
:10AE3000E8AD226D002A40F0D080E26C012AA26CBD
:10AE400000F0DC80C2F307221A61236D0133236511
:10AE500059E4E16A02293FF456AC012A3FF653ACAB
:10AE600020211A68606A22F480621A605A6822F40B
:10AE7000E0625A601B690370638D626A013B9BB29A
:10AE8000638584F83D1094F83E300132402B6262B5
:10AE9000C1D10023204684F83E302363FFF71AFB1C
:10AEA00031E4082D3FF44DAF202D3FF44AAF15F5A6
:10AEB000803F3FF446AF1126002520215A682046E6
:10AEC00022F4E0625A60266384F83E5084F83D1014
:10AED00005F02CFB17E400BFD9A400080000FFFF19
:10AEE000818000801400010000211A6822F4806231
:10AEF0001A6006915A6906929A690692069A1A6829
:10AF000042F400721A6067E6102832D900211A68EC
:10AF100042F400621A6007915A6907929A6907928F
:10AF2000079A1A6822F480621A605A6816057FF53B
:10AF300053AE10F5803F30D15A6842F480525A60C7
:10AF40004AE622F480621A6045E71A6822F48062B9
:10AF50001A605A6812F400622DD000211A6822F497
:10AF600080621A6003915A6903929B690393039B61
:10AF700032E62D4AC240D24312F00102C6D119680E
:10AF800041F48061196008925A6908929A6908929E
:10AF9000089A5A6815057FF51FAE01381F283FF63D
:10AFA0001BAE224AC240D1077FF516AEC4E742F479
:10AFB00080621A600FE704925A6904929A690492B7
:10AFC000049A1A6842F400721A6005E601288BD1CF
:10AFD0001A6822F480621A60E5E6226D012A1AD00E
:10AFE000226D022A7FF48FAB94F83D20222A0CD0E8
:10AFF00094F83D20212A7FF486AB02E5D2B21A6193
:10B00000236D02332365FFF77EBB1A6842F480721A
:10B010001A60FFF778BBA26CD2B21A61236D0133BC
:10B020002365FFF770BB00BF140001008180008022
:10B03000F0B5036883B05C695A68E60535D5D50577
:10B040004FEA122131D56FF480725A611A68A70550
:10B0500042F400421A603AD4650560D5012590F8A3
:10B060003E60428D90F83D10202E076B92B2C9B21F
:10B070003AD06FF480625A6190F83E2045F00405A2
:10B08000102A03D11A6842F400721A60220504D50E
:10B090006FF4006245F008055A61036C1D430564B6
:10B0A00003B0BDE8F040FFF753BAA60503D5D505B8
:10B0B0004FEA122116D46605C4F3802503D4210576
:10B0C00037D403B0F0BDD505FBD50025C7E7032570
:10B0D0006FF4007267055A61C1D42605DDD5CC072F
:10B0E000D6D4DAE70225F3E7002AC2D101F0F7024D
:10B0F000212A03D02829BCD1212FBAD190F83D2094
:10B10000C16AD2B2082916D0202914D0212A2CD005
:10B110006FF480625A61270507D50368B8E72205F6
:10B120004FF00105B9D5C907B2D4002DB5D103B090
:10B13000F0BD110AF7E7282AE8D16FF480670021F3
:10B140002026174A0190C2625A6822F4E0625A60CF
:10B150005F611A683A401A60016380F83D6080F8C8
:10B160003E10FFF7B3F90198D5E7202700266FF4CA
:10B170008061DFF82CC00190C0F82CC0026380F819
:10B180003D7080F83E605A6822F4E0625A6059616E
:10B190001A680A401A60FFF793F90198BBE700BFED
:10B1A0000000FFFF90F83E30102B59D170B590F899
:10B1B0003C300446012B55D0002160220368016316
:10B1C00080F83D201A6822F480621A601A6842F4FE
:10B1D00000721A6041855A6822F4E0625A6090F861
:10B1E0003D2090F83E00D2B2102884F83C1054D094
:10B1F00002F02801282937D059680D0504D4602AA7
:10B2000002D0202284F83D200022226384F83E20D0
:10B210005A6812F400622FD05A68606B22F4006200
:10B220005A6090F82130012B57D0444B4363FEF70E
:10B23000D3FB50B120212268606B136823F0010317
:10B24000136084F83D10436B984794F83D30206CB0
:10B25000DBB210F0040002D0282B5BD0002070BDC0
:10B2600001207047022070BD0022226384F83D1047
:10B270005A6812F40062CFD194F83D10602916D0BC
:10B280005A69520605D51A69636A1A70636A0133EE
:10B290006362204605F056F9D7E7222AA8D11A683A
:10B2A00022F400621A605A681605ADD4A9E720217D
:10B2B00084F83D1022645A69510606D51A69636AFA
:10B2C0001A70626A2368013262621A68204622F0AC
:10B2D00001021A6005F038F9B7E7A06B174B43631A
:10B2E000FEF77AFB0028B0D023685A69500606D5CD
:10B2F0001A69636A1A70626A2368013262622021E5
:10B300001A68A06B22F001021A6084F83D10436BAA
:10B3100098479AE7002520212268094E5368204665
:10B3200023F4E0635360E662256384F83D1084F8FB
:10B330003E50FFF7CBF8284670BD00BFD9A40008E7
:10B340000000FFFF0122014B1A60704720000E42EF
:10B35000002800F0C3812DE9F04103680446DD07B1
:10B3600082B035D5A6494A6802F00C02042A00F0E2
:10B37000EF804A6802F00C02082A00F0E58063685A
:10B38000B3F5803F10D0002B00F00D81B3F5A02F56
:10B3900000F08F819A4B1A6822F480321A601A6882
:10B3A00022F480221A6004E0954A136843F4803343
:10B3B0001360FDF731FF924E054605E0FDF72CFFC7
:10B3C000401B642800F2EB8033689A03F6D52368AB
:10B3D0009F0728D58A4A516811F00C0F00F08E8023
:10B3E000516801F00C01082900F084802369002BCA
:10B3F00000F025810122834B814E1A60FDF70CFF7E
:10B40000054605E0FDF708FF401B022800F2C78053
:10B4100033689807F6D53368626923F0F80343EA86
:10B42000C203336023681A071FD45D0741D5744BEC
:10B43000DA69D0007DD50025734B1A68D10540F13B
:10B440009D80E368012B00F00B81002B00F0C5808C
:10B45000052B6B4B1A6A00F0398122F001021A6247
:10B460001A6A22F004021A62FFE0A369002B50D08E
:10B470000122664B624E1A60FDF7CEFE054605E0DE
:10B48000FDF7CAFE401B022800F28980736A9B0701
:10B49000F6D55F4B5F4A1B68A2FB03235B0A01934F
:10B4A00000BF019B5A1E0192002BF9D123685D0752
:10B4B000BDD4E069D0B1524D6A6802F00C02082A8E
:10B4C00000F0E68002284FF00001534A00F00881A6
:10B4D0001160FDF7A1FE2C46054604E0FDF79CFE39
:10B4E000401B02285BD823689B01F7D4002002B0E0
:10B4F000BDE8F0815268D6033FF578AF404A126844
:10B5000095072FD52269012A2CD0012002B0BDE871
:10B51000F0813E4A3A4E1360FDF77EFE054604E098
:10B52000FDF77AFE401B022839D8736A9F07F7D4CB
:10B53000BCE7DA69012542F08052DA61DB6903F089
:10B5400080530093009B77E74A68D0037FF517AFDD
:10B550002B4A126891037FF53BAF6268002A7FF4A3
:10B5600037AFD2E7264960690A6822F0F80242EA5A
:10B57000C0020A601A077FF558AF76E71A681F46BF
:10B5800042F480721A60FDF747FE06463B68DA0512
:10B590003FF557AFFDF740FE801B6428F6D9032026
:10B5A00002B0BDE8F08103F1804303F504331A686B
:10B5B0001E4622F480321A601A6822F480221A6031
:10B5C000FDF72AFE054604E0FDF726FE401B642831
:10B5D000E5D833689B03F7D4F9E603F1804303F51C
:10B5E00004331A6A1F4622F001021A621A6A41F2F3
:10B5F000883822F004021A62FDF70EFE064612E0B9
:10B6000000100240000042420070004080044242AC
:10B610003C000020D34D621060004242FDF7FCFD6B
:10B62000801B4045BBD83B6A9807F7D4002D3FF4F8
:10B6300040AF444AD36923F08053D36139E7424A8B
:10B64000404E1360FDF7E8FD054604E0FDF7E4FD1C
:10B65000401B0228A3D833689907F7D42368E2E691
:10B66000384A136A43F001031362FDF7D5FD41F236
:10B6700088380646334F04E0FDF7CEFD801B404579
:10B680008DD83B6A9B07F7D5002D3FF412AFD0E76A
:10B6900001283FF42CAF6B68226A03F48031914299
:10B6A0007FF433AF606A03F47013181A18BF0120D7
:10B6B0001DE703F18043A3F53C331A6842F480226E
:10B6C0001A601A6842F480321A6072E642F004028C
:10B6D0001A621A6A42F001021A62C6E70120704734
:10B6E0001160FDF799FD064605E0FDF795FD801B0D
:10B6F00002283FF654AF2B689901F6D4236AB3F5BC
:10B70000803F05D16A68A16822F400320A436A606A
:10B7100001200C4D616A6A680B4322F474120B49D4
:10B7200013436B600860FDF777FD2C46054605E086
:10B73000FDF772FD401B02283FF631AF23689A01E6
:10B74000F6D5D3E6001002400000424260004242BB
:10B75000002800F0AF805D4A2DE9F04113680446EF
:10B7600003F007038B420D4686B00DD2136823F019
:10B7700007030B431360136803F007038B4203D0E6
:10B78000012006B0BDE8F0812368980714D5590759
:10B7900004D54F494A6842F4E0624A601A0704D56A
:10B7A0004B494A6842F460524A604949A0684A6875
:10B7B00022F0F00202434A60DB0720D56268444B66
:10B7C000012A1B6878D0022A71D09807D8D5404E3C
:10B7D00041F28838736823F0030313437360FDF765
:10B7E0001BFD074604E0FDF717FDC01B404566D86A
:10B7F0007368626803F00C03B3EB820FF3D1334A32
:10B80000136803F00703AB4209D9136823F0070359
:10B810002B431360136803F00703AB42B0D12368D6
:10B82000590706D52A49E0684A6822F4E0620243D3
:10B830004A601A0707D5264A2169536823F46053E2
:10B8400043EAC103536040F20122224B06ACADF83B
:10B8500004200FCB04E90F001D494A6802F00C03D5
:10B86000082B11D01C4B1A4A1C4852681C49C2F3C1
:10B870000312805C1B4AC3400868136006F090FD09
:10B88000002006B0BDE8F081C2F38343234413F8DF
:10B89000100CD30315D54A680F4BC2F3404203FB8B
:10B8A00000F3224412F8142CB3FBF2F3DBE79E0101
:10B8B0008DD465E7012070479F0388D460E703209B
:10B8C0005FE7094B03FB00F3CDE700BF0020024018
:10B8D000001002407045010800127A00A4470108D8
:10B8E000040000203C00002000093D0040F201223D
:10B8F00086B0154B0DF1180CADF804200FCB0CE9F8
:10B900000F00124A536803F00C01082902D01048B6
:10B9100006B07047C3F383416144DB0311F8101C88
:10B920000CD553680A48C3F3404300FB01F063445D
:10B9300013F8143CB0FBF3F006B07047054800FB69
:10B9400001F006B0704700BF7045010800100240CA
:10B9500000127A0000093D00044B05495B68054A66
:10B96000C3F30223CB5C1068D8407047001002403C
:10B97000B44701083C000020044B05495B68054AB8
:10B98000C3F3C223CB5C1068D8407047001002405C
:10B99000B44701083C0000200F220D4B02605A689A
:10B9A00010B402F0030242605A680A4C02F0F0023E
:10B9B00082605A6802F4E062C2605B68DB0803F4EC
:10B9C000E0630361236810BC03F007030B6070475A
:10B9D00000100240002002402DE9F04104460068BA
:10B9E00082B0C3072AD5394BDA69D7003DD5384B29
:10B9F00000251A68D60546D5344E336A13F44073D1
:10BA00000FD0616801F440729A420BD001270020E8
:10BA1000336A304A23F44071176010603162D907ED
:10BA200045D46168294A136A23F440730B431362B7
:10BA30001DB1D36923F08053D3612068830706D5F5
:10BA40002249A3684A6822F440421A434A6010F02F
:10BA5000100007D000201D4A6169536823F4800359
:10BA60000B43536002B0BDE8F081DA69012542F072
:10BA70008052DA61DB6903F080530193019B144B20
:10BA80001A68D605B8D41A681F4642F480721A6044
:10BA9000FDF7C2FB06463B68D805ADD4FDF7BCFBFD
:10BAA000831B642BF7D9032002B0BDE8F081FDF7BA
:10BAB000B3FB41F28838074604E0FDF7ADFBC01B3D
:10BAC0004045F0D8336A9A07F7D5AAE7001002403C
:10BAD000007000404004424230B540F2012587B07A
:10BAE000394B441EADF8045006AD0FCB05E90F00ED
:10BAF0000F2C19D8DFE804F00820181B1818181BA1
:10BB0000181818181818182C40F202322F490B6A0E
:10BB10001A40B2F5817F53D003F44073B3F5007F30
:10BB200046D0B3F5407F3BD0002007B030BD07B012
:10BB3000BDE83040FFF7DABEFFF71EFF234B5B681E
:10BB4000C3F3813301335B00B0FBF3F007B030BDCA
:10BB50001E4B5A68186810F08070E6D0C2F383411B
:10BB600006A80144D20311F8100C0CD4184B03FBA7
:10BB700000F0164B5B685B02D7D4164B4000A3FB6A
:10BB800000304008D1E75B6806A9C3F340430B448B
:10BB9000114A13F8143CB2FBF3F300FB03F0E8E79F
:10BBA0004FF22443086810F4003018BF1846BCE771
:10BBB00049F64043486A10F0020018BF1846B4E73F
:10BBC0004FF40040B1E700BF70450108001002408B
:10BBD00000093D00ABAAAAAA00127A0070B505467A
:10BBE0000C46FDF719FB064605E0FDF715FB801B2B
:10BBF000B0F57A7F1FD82B685A689206F5D55A6837
:10BC0000210C42F01002A4B25A6019625C625A68B8
:10BC100022F010025A60FDF7FFFA044605E0FDF736
:10BC2000FBFA031BB3F57A7F05D82B685B689B068C
:10BC3000F5D5002070BD012070BD00BF2DE9F84F83
:10BC400006460068456815F0040540F0BB80904644
:10BC50008269C76983690C461FFA82FC99B28C45D8
:10BC600000F0B380C769BFB247EA03474FF461628F
:10BC7000C249C34BA1FB07194FEAD92902FB19722C
:10BC8000A3FB02135B09C3EB0311A2EB8102BD49C5
:10BC900063708F42A27040F29C80BB4BA3FB0923D0
:10BCA0001B0903EB4303A9EBC3032370026A436A36
:10BCB0001FFA83FB4BEA024BBBF1FF3F05D05F4508
:10BCC0002CBF4FF0FF3BABEB070BFDF7A5FA82460D
:10BCD00006E0FDF7A1FAA0EB0A00B0F57A7F71D873
:10BCE00033685A689206F4D5A74AA849A2FB0929E5
:10BCF0004FEA191901FB19775A68380C42F0100203
:10BD0000B9B25A609861D9615A6822F010025A603B
:10BD1000FDF782FA824606E0FDF77EFAA0EB0A0004
:10BD2000B0F57A7F4ED833685B689B06F4D5BBF1DB
:10BD3000FF3F41D0304607EB0B01FFF74FFF0028D4
:10BD400040D100214FF0640E4FF4C87CF77B737B29
:10BD5000B27B012B00F0A280032B6BD0052B00F0EF
:10BD60009F80072B00F09E80082B00F09D800A2BFF
:10BD700000F0B5800C2B00F0B480042B00F088801C
:10BD8000062B00F0C280092B00F0C1800B2B00F0C5
:10BD9000C080022B52D10B46B8B207F0030B1B2A0E
:10BDA00003F1010A00F2B780D14502F1010240F22D
:10BDB000BB8053465146F2E759463046FFF70EFF27
:10BDC0000028BED00120BDE8F88FBFB247EA024785
:10BDD0004CE784F80090B8F1000F28D02378092BA5
:10BDE00009D900220A3BDBB2092B02F10102F9D882
:10BDF00043EA0213DBB262782370092A09D90023CF
:10BE00000A3AD2B2092A03F10103F9D842EA03122D
:10BE1000D2B2A3786270092B08D90A3BDBB2092B96
:10BE200005F10105F9D843EA0513DBB2A370002040
:10BE3000BDE8F88F04201E2A2DD801320131894532
:10BE400087D8022BF7737373B27307F5FA612DD994
:10BE500003EB43074E48C3EBC7034E4FA0FB01C0A3
:10BE6000A7FB03730A44023202EB910202EBD012E9
:10BE700002EB5302484BA2EB5012A3FB0213D11A60
:10BE800003EB51039B08C3EBC303D31A3373A2E73D
:10BE900005201D2AD1D903460122CFE70220CAE797
:10BEA0000620C8E70820C6E70920C4E703EB4300E3
:10BEB000DFF8E0C0C3EBC003ACFB03035B0834480E
:10BEC00007F2CF770A44A0FB070104321A4402EBC1
:10BED000970202EBD112304BA2EB5112CDE70B20AF
:10BEE000A9E71E2AA9D90131894507F1010702D91D
:10BEF00002220123A2E70121022308460A46B17368
:10BF0000F773707307F5FA61D9E70720C1E70A20D4
:10BF1000BFE70C20BDE71C2A03F1010A08D01D2A47
:10BF200019D0D1453FF645AF05230220D1B2E6E74F
:10BF3000BBF1000F0FD1B0FBFEF20EFB120292B26A
:10BF40002AB9B0FBFCF20CFB120292B21AB901330F
:10BF500099450ED919460131894502D90222032398
:10BF60006CE703230122F77307F5FA617373B27369
:10BF70006EE71D2105230A460220C0E7C5B3A29142
:10BF8000898888887F510100ABAAAAAA8051010044
:10BF90001F85EB51398EE33825499224002875D04E
:10BFA00038B5437C044603F0FF02002B62D0022325
:10BFB00022686374536823F008035360FDF72CF97B
:10BFC000054605E0FDF728F9431BB3F57A7F4DD808
:10BFD00023685B681807F5D5FDF71EF9054605E0EF
:10BFE000FDF71AF9431BB3F57A7F3FD823685A68E7
:10BFF0009106F5D55968A06841F01001596059685B
:10C0000021F00701596020B121490A6B22F0010299
:10C010000A631F49CA6A22F460720243CA626168F5
:10C020004A1C2BD098688DB220F00F0040EA1141D5
:10C030009960DA68120C12042A43DA605A6822F016
:10C0400010025A60FDF7E8F8054605E0FDF7E4F850
:10C05000401BB0F57A7F09D823685B689B06F5D54D
:10C0600001236373E3816374002038BD0423637488
:10C07000012038BD027406F037F998E70120FFF778
:10C080002BFD0028F2D02368411ECBE7012070472A
:10C09000006C0040002800F08680002900F08380BA
:10C0A000F8B5037C0446012B7FD0012002232074C5
:10C0B0006374002A5CD04FF461664A7808781309EB
:10C0C00003EB830502F00F0303EB4503050905EBC2
:10C0D0008507DBB200F00F058A78C3EB031305EB8D
:10C0E0004705EDB29B0006FB0533150905EB8501FD
:10C0F00002F00F0505EB4105EDB21D44FDF78CF88C
:10C10000064605E0FDF788F8831BB3F57A7F44D82F
:10C1100023685A689106F5D55868290C40F010003C
:10C12000AAB258609961DA615A6822F010025A6026
:10C13000FDF772F8064605E0FDF76EF8831BB3F5D0
:10C140007A7F2AD823685A689206F5D55A6822F071
:10C1500005025A601A6A596A89B241EA02414B1CC7
:10C1600001D08D4210D80123002063742074F8BDE3
:10C170004FF461624B780D78C3EB03139B0002FB15
:10C1800005338D781D44B9E701F5A831204601F546
:10C19000C071FFF723FD0028E5D00422002362745C
:10C1A00023740120F8BD012070470220F8BD00BFB4
:10C1B00010B109B1FFF742BD01207047002800F01F
:10C1C0008780002900F0848070B5037C0446012B31
:10C1D00000F0CD800120022320746374002A59D01E
:10C1E000CB78180900EB800203F00F0000EB42004F
:10C1F000C0B2E0734B781A0902EB820503F00F021C
:10C2000002EB4502D2B262738D78022A4FEA15130F
:10C2100003EB830605F00F0303EB4603DBB2A373C6
:10C2200000F5FA6502EB420640D8C2EBC602514E59
:10C2300000F2CF70A6FB02624F4E0433A6FB00C68D
:10C240002B4403EB520202EB900202EBD6124B4B53
:10C25000A2EB5612A3FB0203D01A03EB50039B0878
:10C26000C3EBC303D31ADBB223730B702368996942
:10C27000DD699A698EB290B286422BD0DD69404B5F
:10C28000ADB245EA02459D422AD8012300206374DD
:10C29000207470BDC878E0734A7800F5FA6562735F
:10C2A0008B78022AA37302EB4206BED93148C2EB57
:10C2B000C602A0FB020230480733A0FB05602B44F6
:10C2C00003EB520202EB95022C4BA2EB5012C1E79A
:10C2D000012070472A4BADB245EA01459D42D4D9B1
:10C2E000FCF79AFF064605E0FCF796FF801BB0F5C9
:10C2F0007A7F36D823685A689106F5D5214E224AAE
:10C30000A6FB0516360C02FB16565A68300C42F096
:10C310001002B1B25A609861D9615A6822F01002D5
:10C320005A60FCF779FF054605E0FCF775FF401BF6
:10C33000B0F57A7F15D823685A689206F5D51A6A3F
:10C34000596A89B241EA02414B1C9ED08E429CD967
:10C3500001F5A831204601F5C071FFF73FFC002828
:10C3600093D00422002362742374012070BD022044
:10C3700070BD00BF398EE3381F85EB5125499224EB
:10C380008F5F010007452EC280510100704700BF3A
:10C39000002852D038B590F83D30044603F0FF0233
:10C3A000002B45D002232268254984F83D308A427B
:10C3B000136824D001F500618A4220D0B2F1804F89
:10C3C0000BD0A1F598318A4207D001F580618A42ED
:10C3D00003D001F580618A4207D1A16823F0700380
:10C3E0000B43216923F440730B43A569E06861683E
:10C3F00023F080032B431360D062916212E0A168A6
:10C4000023F070030B43216923F440730B43A169AC
:10C4100023F080030B431360E368D3626368936285
:10C42000636913630123536184F83D30002038BDF4
:10C4300080F83C20FFF7AAFFB4E70120704700BF57
:10C44000002C01400368DA6842F00102DA609A6861
:10C4500002F00702062A03D01A6842F001021A60AD
:10C4600000207047704700BF704700BF704700BF93
:10C47000704700BF036810B51A690446910702D5DA
:10C48000DA6892075FD41A69500702D5DA68510753
:10C4900046D41A69120702D5DA6810072ED41A6931
:10C4A000D20602D5DA68D00618D41A69D10702D5A7
:10C4B000DA68D2075DD41A69100602D5DA68110667
:10C4C0005FD41A69520602D5DA68500661D41A6937
:10C4D000910602D5DA68920643D410BD6FF01001C0
:10C4E000082219612277DB69204613F4407F64D06B
:10C4F000FFF7BAFF002223682277D6E76FF0080122
:10C50000042219612277DB692046990752D1FFF78F
:10C51000A9FF2046FFF7AAFF002223682277BEE783
:10C520006FF004010222196122779B69204613F4FF
:10C53000407F3CD1FFF796FF2046FFF797FF002290
:10C5400023682277A5E76FF00201012219610277C3
:10C550009B699B0725D0FFF787FF0022236822777E
:10C5600091E76FF020022046BDE810401A6100F00C
:10C570002BB86FF0010220461A6105F00DFD23680B
:10C5800099E76FF0800220461A6100F01FF82368D7
:10C5900097E76FF0400220461A61FFF769FF2368B2
:10C5A00095E7FFF75FFF2046FFF760FFD5E7FFF74E
:10C5B0005BFFC4E7FFF758FFAEE7FFF753FF2046E6
:10C5C000FFF754FF96E700BF704700BF704700BFFA
:10C5D000002879D038B590F83930044603F0FF02CE
:10C5E000002B51D02422236884F83920DA68E068CF
:10C5F00022F40052DA601969A26821F44051014323
:10C600001961D968D4E9045021F4B0512A4321F0CA
:10C610000C0102430A43DA605A69A0692B4922F4EB
:10C62000407202438B425A6133D0FFF795F9636839
:10C6300000EB80009B0000EB8000B0FBF3F0642275
:10C64000234D2368A5FB00C1490902FB110000012D
:10C650003230A5FB0020090101EB50109860002545
:10C6600020211A69284622F490421A615A6922F060
:10C670002A025A61DA6842F40052DA60E56384F80B
:10C68000391084F83A1038BD80F8382005F04CFE97
:10C69000A8E7FFF771F9626800EB800000EB80000B
:10C6A0009200B0FBF2F26421094D2368A5FB02C0A1
:10C6B000400901FB102212013232A5FB02120001D7
:10C6C00000EB52129A60CAE701207047003801401F
:10C6D0001F85EB512DE9F041044690F839002028E0
:10C6E0007CD10E46002955D01546002A52D09846D6
:10C6F00094F83830012B71D0212300210122E1630D
:10C7000084F8382084F83930FCF786FDE584E38C22
:10C71000A5849BB207462568A3B1E28CA168013AC3
:10C7200092B2B1F5805FE28426D0B8F1FF3F34D1F8
:10C730002B681806FCD516F8013B6B60E38C9BB2A6
:10C74000002BEAD1B8F1FF3F4BD12B685A06FCD53C
:10C750002023002084F8393084F83800BDE8F081C7
:10C760002B681B060ED4B8F1000F22D0FCF754FD45
:10C77000C01B804525681CD3B8F1FF3FF0D12B6862
:10C780001A06FCD533882269C3F308036B601ABB11
:10C790000236D3E70120BDE8F0812B681906CAD420
:10C7A000B8F1000F05D0FCF737FDC01B80452568A8
:10C7B000BBD220220021EB68032023F4D073EB606E
:10C7C0006B6923F001036B6184F8392084F8381019
:10C7D00084F83A20BDE8F0810136AFE70220BDE8D9
:10C7E000F0812B685B06B3D4B8F1000FE1D0FCF701
:10C7F00013FDC01B80452568A4D2DAE708B501F017
:10C800002FFB002008BD00BFEFF305830BB101F043
:10C81000C3BB01F0BBBB00BF70B5446902460B4609
:10C8200086B094B1866986B1B0F908501269842D3A
:10C8300008BF0025D0E9001018BF0335CDE9014637
:10C84000009501F0ADF906B070BDB2F9084005AD34
:10C85000842C08BF0024D2E9001018BF0334128AC8
:10C86000CDE9004501F052FA012814BF00200598D7
:10C8700006B070BD08B5012838BF012001F0E8FC02
:10C88000002008BD10B54468134682B0026864B148
:10C89000CDE90024A1F10102B2FA82F2012152098C
:10C8A000084802F075FA02B010BD0092A1F1010231
:10C8B000B2FA82F201215209024802F007FA02B0EC
:10C8C00010BD00BF8045010810B5002484B003945A
:10C8D000EFF30583A3B122460821009403AB02F0D5
:10C8E000CFFA012813D1039BA3B14FF080520B4B19
:10C8F0001A60BFF34F8FBFF36F8F204604B010BD97
:10C900001A460321009302F0BBFA012802D0FF204F
:10C9100004B010BD002004B010BD00BF04ED00E065
:10C9200010B5446882B0084684B1012903D00024C0
:10C93000204602B010BD002203212346009111467B
:10C9400000F0FAF80446204602B010BD0129EFD1EC
:10C950002146032200F062F904460028E8D00023B3
:10C960001A46194600F0A6F9E2E700BF10B5002408
:10C9700082B0019400B3EFF3058333B900F064FD96
:10C98000012816D1002002B010BD214601AA00F0F6
:10C99000E9FE01280DD1019B002BF3D04FF080520E
:10C9A000074B1A60BFF34F8FBFF36F8F204602B063
:10C9B00010BDFF2002B010BD802002B010BD00BF2E
:10C9C00004ED00E010B5002482B00194EFF305837C
:10C9D0008BB101A900F05AFB012812D1019B9BB138
:10C9E0004FF080520A4B1A60BFF34F8FBFF36F8F27
:10C9F000204602B010BD1A46194600F05BF9012826
:10CA000002D0FF2002B010BD002002B010BD00BF58
:10CA100004ED00E008B5012938BF012101F048FC10
:10CA2000002008BD4FF0FF31002200F10803C0E9EB
:10CA30000333816002604360704700BF00230361DD
:10CA4000704700BF436810B49C6802688C609C68A3
:10CA500001324B606160996010BC086102607047F0
:10CA600030B40D686B1C10D000F108031C465B68E5
:10CA70001A68AA42FAD902684B60013299608C6048
:10CA80006160086130BC0260704704696368F2E766
:10CA9000036910B4D0E901125C688A60516000211A
:10CAA000844208BF5A601A680161013A1A60186826
:10CAB00010BC704770B50446006CA66B28B9256899
:10CAC000002D2ED00136A66370BD154602467DB9F5
:10CAD000A06805F087FDA368216C62680B4493424F
:10CAE000A3601AD3226801362846A260A66370BDEF
:10CAF000E06805F077FD226CE36821689B1A8B42A1
:10CB0000E360C2F1000202D263681A44E260022DBF
:10CB10000CD001360020A66370BD01362846A663FE
:10CB200070BD606801F01CFE6560CBE7012E38BF68
:10CB300001260020C7E700BF70B582B09DF81850ED
:10CB400040B94FF0500383F31188BFF36F8FBFF3E9
:10CB50004F8FFEE71C46E3B1034672B111B350207C
:10CB600001900198502826D04FF0500383F311888C
:10CB7000BFF36F8FBFF34F8FFEE7002944D15022E0
:10CB80000192019A502AEFD1012284F846202246D0
:10CB900014E04FF0500383F31188BFF36F8FBFF39E
:10CBA0004F8FFEE74FF0500383F31188BFF36F8F71
:10CBB000BFF34F8FFEE7012084F84600C4E90F3130
:10CBC000226002F0E7F9D4E90F32FF26002003FBD0
:10CBD00002F321689A1A0A440B44A063C4E90131A4
:10CBE000E26004F1100084F8446084F84560FFF7C7
:10CBF00019FF04F12400FFF715FF02F0EDF92046BC
:10CC000084F84C5002B070BD4FF0500383F311888C
:10CC1000BFF36F8FBFF34F8FFEE700BFF8B540B98A
:10CC20004FF0500383F31188BFF36F8FBFF34F8F23
:10CC3000FEE70D461646074641B9502002F0D6FAE7
:10CC40000446A0B384F8465024600CE001FB00F0D9
:10CC5000503002F0CBFA044648B3002200F15003F2
:10CC600080F846200360C4E90F7502F093F9D4E917
:10CC70000F32FF25002003FB02F321689A1A0A44B1
:10CC80000B44A063C4E90131E26004F1100084F8B0
:10CC9000445084F84550FFF7C5FE04F12400FFF727
:10CCA000C1FE02F099F984F84C602046F8BD0024DA
:10CCB0002046F8BD2DE9F04784B00192002800F02D
:10CCC000AC8088461F460446002900F09980022F58
:10CCD0000BD1E36B012B08D04FF0500383F3118885
:10CCE000BFF36F8FBFF34F8FFEE701F0D1FC824699
:10CCF000002800F09B804FF0000ADFF8C09204F19A
:10CD0000240602F047F9A26BE36B9A42C0F0F4806C
:10CD1000022F00F0F180019D002D00F04A8102AD4C
:10CD2000BAF1000F00F0E48002F056F901F026F9A4
:10CD300002F030F994F84430FF2B04BF002384F84C
:10CD4000443094F84530FF2B04BF002384F845306D
:10CD500002F042F9284601A901F04CFC002840F0FD
:10CD6000E88002F017F9A26BE36B9A426BD002F0F5
:10CD700033F902F00FF994F845506DB2002D05DC3F
:10CD800012E06B1E13F0FF0F5DB20DD0636A5BB152
:10CD9000304601F0DDFB0028F3D001F073FC6B1E80
:10CDA00013F0FF0F5DB2F1D1FF2384F8453002F09C
:10CDB00013F902F0EFF894F844506DB2002D15DD30
:10CDC00004F1100A04E06B1E13F0FF0F5DB20DD0EA
:10CDD00023695BB1504601F0BBFB0028F3D001F0A2
:10CDE00051FC6B1E13F0FF0F5DB2F1D1FF2384F8ED
:10CDF000443002F0F1F801F01BFA4FF0010A80E72D
:10CE0000036C002B3FF463AF4FF0500383F31188A2
:10CE1000BFF36F8FBFF34F8FFEE74FF0500383F3E5
:10CE20001188BFF36F8FBFF34F8FFEE7019B002B7D
:10CE30003FF463AF4FF0500383F31188BFF36F8F5C
:10CE4000BFF34F8FFEE704F1100A02F0C5F8504619
:10CE5000019901F0CDFA02F09DF894F845506DB2B9
:10CE6000002D05DC12E06B1E13F0FF0F5DB20DD03C
:10CE7000636A5BB1304601F06BFB0028F3D001F030
:10CE800001FC6B1E13F0FF0F5DB2F1D1FF2384F89C
:10CE9000453002F0A1F802F07DF894F844506DB2EC
:10CEA000002D05DC12E06B1E13F0FF0F5DB20DD0FC
:10CEB00023695BB1504601F04BFB0028F3D001F031
:10CEC000E1FB6B1E13F0FF0F5DB2F1D1FF2384F87D
:10CED000443002F081F801F0ABF900288DD14FF019
:10CEE0008053C9F80030BFF34F8FBFF36F8F84E7D3
:10CEF000284601F073FB17E73A4641462046FFF704
:10CF0000D9FD626A72B938B14FF080522B4B1A606A
:10CF1000BFF34F8FBFF36F8F02F05EF8012004B0B4
:10CF2000BDE8F08704F1240001F012FB0028F3D0E3
:10CF3000EAE702F02FF894F845506DB2002D11DDAC
:10CF400004F1240604E06B1E13F0FF0F5DB209D05C
:10CF5000636A3BB1304601F0FBFA0028F3D001F0E0
:10CF600091FBF0E7FF2384F8453002F035F802F03A
:10CF700011F894F844506DB2002D11DD04F1100643
:10CF800004E06B1E13F0FF0F5DB209D023693BB1C3
:10CF9000304601F0DDFA0028F3D001F073FBF0E732
:10CFA000FF2384F8443002F017F801F041F9002023
:10CFB000B5E702F011F82846B1E700BF04ED00E044
:10CFC0002DE9F843002835D0894690461F4604468F
:10CFD00021B3022F0BD1E36B012B08D04FF050038C
:10CFE00083F31188BFF36F8FBFF34F8FFEE702F01B
:10CFF000CFF8EFF311864FF0500383F31188BFF39E
:10D000006F8FBFF34F8FA26BE36B9A421BD3022F3C
:10D0100019D0002086F31188BDE8F883036C002B3B
:10D02000D7D04FF0500383F31188BFF36F8FBFF356
:10D030004F8FFEE74FF0500383F31188BFF36F8FDC
:10D04000BFF34F8FFEE794F845503A4649462046D5
:10D050006DB2FFF72FFD6B1C08D06B1C5BB284F820
:10D060004530012086F31188BDE8F883636A002B00
:10D07000F7D004F1240001F06BFA0028F1D0B8F1E8
:10D08000000FEED00120C8F80000C3E770B3036CB6
:10D0900070B5044643B14FF0500383F31188BFF3DA
:10D0A0006F8FBFF34F8FFEE703680D463BB302F06F
:10D0B0006FF8EFF311864FF0500383F31188BFF33D
:10D0C0006F8FBFF34F8FA36BE26B9A4223D994F813
:10D0D00045200133FF2AA36353B220D001335BB252
:10D0E00084F84530012086F3118870BD4FF050035D
:10D0F00083F31188BFF36F8FBFF34F8FFEE7436851
:10D10000002BD4D04FF0500383F31188BFF36F8FFF
:10D11000BFF34F8FFEE7002086F3118870BD636A6E
:10D12000002BDFD004F1240001F012FA0028D9D03E
:10D13000002DD7D001202860EEE700BF2DE9F04395
:10D1400085B00192002800F0F5800E4604460029C3
:10D1500000F08A8001F09CFA002879D001F01AFFD3
:10D16000A56B002D40F04881019B002B00F0DC8076
:10D1700002A801F033FADFF8CC8204F1240701F0B1
:10D180002BFF00F0FBFE01F005FF94F84430FF2B6D
:10D1900004BF002384F8443094F84530FF2B04BFCB
:10D1A000002384F8453001F017FF01A902A801F01F
:10D1B00021FA002865D101F0EDFEA36B002B00F0F1
:10D1C000C28001F009FF01F0E5FE94F845506DB210
:10D1D000002D05DC12E06B1E13F0FF0F5DB20DD0C9
:10D1E000636A5BB1384601F0B3F90028F3D001F06F
:10D1F00049FA6B1E13F0FF0F5DB2F1D1FF2384F8E3
:10D20000453001F0E9FE01F0C5FE94F844506DB2DE
:10D21000002D15DD04F1100904E06B1E13F0FF0F63
:10D220005DB20DD023695BB1484601F091F9002849
:10D23000F3D001F027FA6B1E13F0FF0F5DB2F1D1AE
:10D24000FF2384F8443001F0C7FE00F0F1FF62E0F4
:10D25000019B002B82D04FF0500383F31188BFF362
:10D260006F8FBFF34F8FFEE7036C002B3FF472AF5D
:10D270004FF0500383F31188BFF36F8FBFF34F8FCD
:10D28000FEE701F087FE94F845506DB2002D05DCF5
:10D2900012E06B1E13F0FF0F5DB20DD0636A5BB13D
:10D2A000384601F055F90028F3D001F0EBF96B1E78
:10D2B00013F0FF0F5DB2F1D1FF2384F8453001F088
:10D2C0008BFE01F067FE94F844506DB2002D15DD21
:10D2D00004F1100904E06B1E13F0FF0F5DB20DD0D6
:10D2E00023695BB1484601F033F90028F3D001F01F
:10D2F000C9F96B1E13F0FF0F5DB2F1D1FF2384F863
:10D30000443001F069FE00F093FF01F043FEA36B8F
:10D3100053B101F061FE01F03DFEA56B002D6BD114
:10D32000019B002B7FF42BAF01F056FE002005B0CF
:10D33000BDE8F0834FF0500383F31188BFF36F8F84
:10D34000BFF34F8FFEE701F047FE3846019901F029
:10D350004FF801F01FFE94F845506DB2002D05DC2A
:10D3600012E06B1E13F0FF0F5DB20DD0636A5BB16C
:10D37000384601F0EDF80028F3D001F083F96B1E78
:10D3800013F0FF0F5DB2F1D1FF2384F8453001F0B7
:10D3900023FE01F0FFFD94F844506DB2002D15DD21
:10D3A00004F1100904E06B1E13F0FF0F5DB20DD005
:10D3B00023695BB1484601F0CBF80028F3D001F0B7
:10D3C00061F96B1E13F0FF0F5DB2F1D1FF2384F8FA
:10D3D000443001F001FE00F02BFF00289BD14FF0FC
:10D3E0008053C8F80030BFF34F8FBFF36F8F01F049
:10D3F000D1FDA56B002D93D0226C5AB1E168636812
:10D4000011449942E16028BF2168304628BFE1609D
:10D4100005F0E8F8013DA56323691BB901F0DCFDC7
:10D42000012084E704F1100001F092F80028F5D003
:10D430004FF08052034B1A60BFF34F8FBFF36F8FD3
:10D44000ECE700BF04ED00E02DE9F04385B0019169
:10D4500058B1056C04468DB14FF0500383F3118829
:10D46000BFF36F8FBFF34F8FFEE74FF0500383F38F
:10D470001188BFF36F8FBFF34F8FFEE701F008F9FC
:10D480000646002800F0C7802E46DFF8D48204F15B
:10D49000240701F07FFDA36B002B40F02181019B4D
:10D4A000002B00F05281002E00F0B08002AE01F09F
:10D4B00093FD00F063FD01F06DFD94F84430FF2B07
:10D4C00004BF002384F8443094F84530FF2B04BF98
:10D4D000002384F8453001F07FFD304601A901F0BA
:10D4E00089F8F8B901F056FDA36B002B00F0A0807D
:10D4F00001F072FD01F04EFD94F8456076B2002E09
:10D5000005DC5DE0731E13F0FF0F5EB258D0636A56
:10D51000002B55D0384601F01BF80028F2D001F05E
:10D52000B1F8EFE701F036FD94F8456076B2002ED1
:10D5300005DC12E0731E13F0FF0F5EB20DD0636ABC
:10D540005BB1384601F004F80028F3D001F09AF8F6
:10D55000731E13F0FF0F5EB2F1D1FF2384F8453044
:10D5600001F03AFD01F016FD94F8446076B2002E09
:10D5700015DD04F1100904E0731E13F0FF0F5EB215
:10D580000DD023695BB1484600F0E2FF0028F3D0DC
:10D5900001F078F8731E13F0FF0F5EB2F1D1FF2394
:10D5A00084F8443001F018FD00F042FE01F0F2FC76
:10D5B000A36B002B00F08D8001F00EFD012668E7C3
:10D5C000FF2384F8453001F007FD01F0E3FC94F8F7
:10D5D000446076B2002E11DD04F1100904E0731EE0
:10D5E00013F0FF0F5EB209D023693BB1484600F04B
:10D5F000AFFF0028F3D001F045F8F0E7FF2384F8EF
:10D60000443001F0E9FC00F013FED7E702AE3046EB
:10D6100000F0E4FF4BE7019B43B14FF0500383F36D
:10D620001188BFF36F8FBFF34F8FFEE705462CE7DE
:10D6300001F0D2FC2368002B7ED03846019900F01F
:10D64000D7FE01F0A7FC94F8456076B2002E05DC09
:10D650000EE0731E13F0FF0F5EB209D0636A3BB198
:10D66000384600F075FF0028F3D001F00BF8F0E722
:10D67000FF2384F8453001F0AFFC01F08BFC94F8F7
:10D68000446076B2002E11DD04F1100904E0731E2F
:10D6900013F0FF0F5EB209D023693BB1484600F09A
:10D6A00057FF0028F3D000F0EDFFF0E7FF2384F8E8
:10D6B000443001F091FC00F0BBFD00287FF47EAF08
:10D6C0004FF08053C8F80030BFF34F8FBFF36F8F18
:10D6D00074E701F081FC6DB9284605B0BDE8F08320
:10D6E0002268013BA3631AB3236993B901F074FC68
:10D6F0000125F1E701F04EFC616A19B1236B19684D
:10D70000C1F10701606801F087F8002501F064FCB1
:10D71000E2E704F1100000F01BFF0028E6D04FF014
:10D7200080520F4B1A60BFF34F8FBFF36F8FDDE74F
:10D7300001F0D8F86060D7E701F02CFC606800F0D9
:10D74000B7FF054601F048FC77E7002DDED04FF02B
:10D75000500383F31188BFF36F8FBFF34F8FFEE742
:10D7600004ED00E02DE9F84310B3894690460446E5
:10D7700091B101F00DFDEFF311874FF0500383F3EA
:10D780001188BFF36F8FBFF34F8FA56BCDB92846BC
:10D7900087F31188BDE8F883036C002BE9D04FF0C4
:10D7A000500383F31188BFF36F8FBFF34F8FFEE7F2
:10D7B0004FF0500383F31188BFF36F8FBFF34F8F88
:10D7C000FEE794F84460226C76B25AB1E16863686F
:10D7D00011449942E16028BF2168484628BFE160B2
:10D7E00004F000FF013D731CA56308D0731C5BB2FD
:10D7F00084F84430012087F31188BDE8F883236959
:10D80000002BF7D004F1100000F0A2FE0028F1D0A8
:10D81000B8F1000FEED00120C8F80000B8E700BF53
:10D82000134B1A687AB19A68AAB11A69AAB19A69AF
:10D83000AAB11A6AAAB19A6AAAB11A6B12B19A6B02
:10D840009AB17047062210B403EBC204606043F83B
:10D85000321010BC70470122F5E70222F3E70322E1
:10D86000F1E70422EFE70522EDE70722EBE700BF2F
:10D870002030002070B504460E46154601F08AFBA4
:10D8800094F84430FF2B04BF002384F8443094F80C
:10D890004530FF2B04BF002384F8453001F09CFB8A
:10D8A000A36B002B45D001F075FB94F845506DB289
:10D8B000002D15DD04F1240604E06B1E13F0FF0FAC
:10D8C0005DB20DD0636A5BB1304600F041FE0028C6
:10D8D000F3D000F0D7FE6B1E13F0FF0F5DB2F1D155
:10D8E000FF2384F8453001F077FB01F053FB94F8F7
:10D8F00044506DB2002D15DD04F1100604E06B1EDE
:10D9000013F0FF0F5DB20DD023695BB1304600F01C
:10D910001FFE0028F3D000F0B5FE6B1E13F0FF0FC2
:10D920005DB2F1D1FF2384F84430BDE8704001F0CE
:10D9300053BB2A46314604F1240000F0A9FDB2E7AA
:10D94000F8B5044601F026FB374A384D1368013319
:10D9500013602B68002B32D0354E336843B3E06A36
:10D9600001233449344FD1F800C03A68834043EA78
:10D970000C03DFF8CCC0013200EB80000B60626466
:10D980000CEB8000211D3A60FFF75CF801F024FBEE
:10D99000336863B12A68E36AD26A9A4207D24FF0C9
:10D9A0008052264B1A60BFF34F8FBFF36F8FF8BDC5
:10D9B0002B68E06ADB6A834298BF2C60D0E72C605A
:10D9C0001368012B02D0E06A194EC9E71C48FFF723
:10D9D00029F81C48FFF726F81B48FFF723F81B48D7
:10D9E000FFF720F81A48FFF71DF81A4F1A48FFF7FB
:10D9F00019F81A4E1A48FFF715F83846FFF712F8CB
:10DA00003046FFF70FF81748FFF70CF81648FFF7F6
:10DA100009F81648FFF706F8154A164B1760E06A32
:10DA20001E60034E9CE700BF64010020C800002078
:10DA3000C0010020780100207401002004ED00E006
:10DA4000D4000020E8000020FC000020100100208D
:10DA5000240100207C0100203801002090010020DA
:10DA60004C010020AC010020D8010020C40100209E
:10DA7000CC000020D0000020F8B51B4B1B4E1D68C9
:10DA800033680446181D0F46FFF702F840B901221B
:10DA900033681749D86A0B68824023EA02030B6097
:10DAA000631C17D033682C195C6007D3114B1868BE
:10DAB0003168BDE8F8400431FEF7D2BF0E4B18685C
:10DAC00031680431FEF7CCFF0C4B1A68A24288BFC4
:10DAD0001C60F8BD002FE5D0316809480431BDE86D
