:020000040800F2
:1000000000C000208DDB000879D9000885D90008E0
:100010008BD9000891D9000897D90008000000008A
:100020000000000000000000000000003195000802
:100030009DD900080000000011970008599700089A
:10004000D5DB0008D5DB0008D5DB0008D5DB0008D0
:10005000D5DB0008D5DB0008D5DB0008D5DB0008C0
:10006000D5DB0008D5DB0008D5DB0008A9D90008DE
:10007000D5DB0008D5DB0008D5DB0008D5DB0008A0
:10008000D5DB0008D5DB0008D5DB0008D5DB000890
:10009000D5DB0008D5DB0008D5DB0008D5DB000880
:1000A000D5DB0008BDD90008D5DB0008D5DB00088A
:1000B000D5DB0008D5DB0008D5DB0008D1D9000866
:1000C000E5D90008D5DB0008D5DB0008D5DB000842
:1000D000D5DB0008D5DB0008D5DB0008D5DB000840
:1000E000D5DB0008D5DB0008D5DB0008D5DB000830
:1000F000D5DB0008D5DB0008D5DB0008D5DB000820
:10010000D5DB0008D5DB0008D5DB0008D5DB00080F
:10011000D5DB0008D5DB0008D5DB0008D5DB0008FF
:10012000D5DB0008D5DB0008D5DB0008D5DB0008EF
:1001300000000000000000000000000000000000BF
:1001400000000000000000000000000000000000AF
:10015000000000000000000000000000000000009F
:10016000000000000000000000000000000000008F
:10017000000000000000000000000000000000007F
:10018000000000000000000000000000000000006F
:10019000000000000000000000000000000000005F
:1001A000000000000000000000000000000000004F
:1001B000000000000000000000000000000000003F
:1001C000000000000000000000000000000000002F
:1001D000000000000000000000000000000000001F
:0401E0005FF8E0F1F3
:1001F00010B5054C237833B9044B13B10448AFF361
:1002000000800123237010BDA80000200000000022
:10021000ECFA000808B5034B1BB103490348AFF3E0
:10022000008008BD00000000AC000020ECFA0008CF
:1002300081F0004102E000BF83F0004330B54FEA97
:1002400041044FEA430594EA050F08BF90EA020F04
:100250001FBF54EA000C55EA020C7FEA645C7FEA97
:10026000655C00F0E2804FEA5454D4EB5555B8BFBA
:100270006D420CDD2C4480EA020281EA030382EA2B
:10028000000083EA010180EA020281EA0303362DBD
:1002900088BF30BD11F0004F4FEA01314FF4801C90
:1002A0004CEA113102D0404261EB410113F0004FA2
:1002B0004FEA03334CEA133302D0524263EB430359
:1002C00094EA050F00F0A780A4F10104D5F1200EF7
:1002D0000DDB02FA0EFC22FA05F2801841F1000152
:1002E00003FA0EF2801843FA05F359410EE0A5F126
:1002F00020050EF1200E012A03FA0EFC28BF4CF057
:10030000020C43FA05F3C01851EBE37101F000450C
:1003100007D54FF0000EDCF1000C7EEB00006EEB19
:100320000101B1F5801F1BD3B1F5001F0CD34908A3
:100330005FEA30004FEA3C0C04F101044FEA4452FA
:1003400012F5800F80F09A80BCF1004F08BF5FEA81
:10035000500C50F1000041EB045141EA050130BD61
:100360005FEA4C0C404141EB0101013C28BFB1F573
:10037000801FE9D291F0000F04BF01460020B1FABE
:1003800081F308BF2033A3F10B03B3F120020CDA91
:100390000C3208DD02F1140CC2F10C0201FA0CF06F
:1003A00021FA02F10CE002F11402D8BFC2F1200CD4
:1003B00001FA02F120FA0CFCDCBF41EA0C0190408A
:1003C000E41AA2BF01EB0451294330BD6FEA0404D3
:1003D0001F3C1CDA0C340EDC04F11404C4F12002BE
:1003E00020FA04F001FA02F340EA030021FA04F3D0
:1003F00045EA030130BDC4F10C04C4F1200220FA27
:1004000002F001FA04F340EA0300294630BD21FA64
:1004100004F0294630BD94F0000F83F4801306BF2A
:1004200081F480110134013D4EE77FEA645C18BF1E
:100430007FEA655C29D094EA050F08BF90EA020FB5
:1004400005D054EA000C04BF1946104630BD91EAAD
:10045000030F1EBF0021002030BD5FEA545C05D1B0
:100460004000494128BF41F0004130BD14F58004EF
:100470003CBF01F5801130BD01F0004545F0FE4163
:1004800041F470014FF0000030BD7FEA645C1ABF98
:10049000194610467FEA655C1CBF0B46024650EACF
:1004A000013406BF52EA033591EA030F41F40021FB
:1004B00030BD00BF90F0000F04BF0021704730B581
:1004C0004FF4806404F132044FF000054FF0000156
:1004D00050E700BF90F0000F04BF0021704730B517
:1004E0004FF4806404F1320410F0004548BF4042EC
:1004F0004FF000013EE700BF42004FEAE2014FEA41
:1005000031014FEA02701FBF12F07F4393F07F4F1B
:1005100081F06051704732F07F4208BF704793F01E
:100520007F4F04BF41F40021704730B54FF4607431
:1005300001F0004521F000411CE700BF50EA010234
:1005400008BF704730B54FF000050AE050EA0102DD
:1005500008BF704730B511F0004502D5404261EB4D
:1005600041014FF4806404F132045FEA915C3FF48E
:10057000D8AE4FF003025FEADC0C18BF03325FEA2B
:10058000DC0C18BF033202EBDC02C2F1200300FADC
:1005900003FC20FA02F001FA03FE40EA0E0021FA01
:1005A00002F11444BDE600BF70B54FF0FF0C4CF4EF
:1005B000E06C1CEA11541DBF1CEA135594EA0C0FA1
:1005C00095EA0C0F00F0DEF82C4481EA030621EADC
:1005D0004C5123EA4C5350EA013518BF52EA033517
:1005E00041F4801143F4801338D0A0FB02CE4FF0C9
:1005F0000005E1FB02E506F00042E0FB03E54FF0F9
:100600000006E1FB03569CF0000F18BF4EF0010EF0
:10061000A4F1FF04B6F5007F64F5407404D25FEAEC
:100620004E0E6D4146EB060642EAC62141EA55519F
:100630004FEAC52040EA5E504FEACE2EB4F1FD0CE1
:1006400088BFBCF5E06F1ED8BEF1004F08BF5FEA5F
:10065000500E50F1000041EB045170BD06F0004611
:1006600046EA010140EA020081EA0301B4EB5C04BE
:10067000C2BFD4EB0C0541EA045170BD41F48011B6
:100680004FF0000E013C00F3AB8014F1360FDEBFDB
:10069000002001F0004170BDC4F10004203C35DAB7
:1006A0000C341BDC04F11404C4F1200500FA05F33A
:1006B00020FA04F001FA05F240EA020001F00042DB
:1006C00021F0004110EBD37021FA04F642EB060151
:1006D0005EEA430E08BF20EAD37070BDC4F10C047B
:1006E000C4F1200500FA04F320FA05F001FA04F23F
:1006F00040EA020001F0004110EBD37041F100012B
:100700005EEA430E08BF20EAD37070BDC4F1200535
:1007100000FA05F24EEA020E20FA04F301FA05F29D
:1007200043EA020321FA04F001F0004121FA04F245
:1007300020EA020000EBD3705EEA430E08BF20EA15
:10074000D37070BD94F0000F0FD101F0004640004F
:1007500041EB010111F4801F08BF013CF7D041EAD1
:10076000060195F0000F18BF704703F000465200D5
:1007700043EB030313F4801F08BF013DF7D043EAA6
:100780000603704794EA0C0F0CEA135518BF95EA5C
:100790000C0F0CD050EA410618BF52EA4306D1D1E3
:1007A00081EA030101F000414FF0000070BD50EA02
:1007B000410606BF1046194652EA430619D094EA8C
:1007C0000C0F02D150EA013613D195EA0C0F05D176
:1007D00052EA03361CBF104619460AD181EA0301CA
:1007E00001F0004141F0FE4141F470014FF0000082
:1007F00070BD41F0FE4141F4780170BD70B54FF01D
:10080000FF0C4CF4E06C1CEA11541DBF1CEA13559C
:1008100094EA0C0F95EA0C0F00F0A7F8A4EB05047E
:1008200081EA030E52EA03354FEA013100F0888075
:100830004FEA03334FF0805545EA131343EA12633E
:100840004FEA022245EA111545EA10654FEA0026F3
:100850000EF000419D4208BF964244F1FD0404F5AC
:10086000407402D25B084FEA3202B61A65EB030508
:100870005B084FEA32024FF480104FF4002CB6EBC5
:10088000020E75EB030E22BFB61A754640EA0C0045
:100890005B084FEA3202B6EB020E75EB030E22BF85
:1008A000B61A754640EA5C005B084FEA3202B6EBC6
:1008B000020E75EB030E22BFB61A754640EA9C0085
:1008C0005B084FEA3202B6EB020E75EB030E22BF55
:1008D000B61A754640EADC0055EA060E18D04FEA13
:1008E000051545EA16754FEA06164FEAC30343EAB3
:1008F00052734FEAC2025FEA1C1CC0D111F4801F80
:100900000BD141EA00014FF000004FF0004CB6E778
:1009100011F4801F04BF01430020B4F1FD0C88BF17
:10092000BCF5E06F3FF6AFAEB5EB030C04BFB6EB22
:10093000020C5FEA500C50F1000041EB045170BD15
:100940000EF0004E4EEA113114EB5C04C2BFD4EB42
:100950000C0541EA045170BD41F480114FF0000EC6
:10096000013C90E645EA060E8DE60CEA135594EA42
:100970000C0F08BF95EA0C0F3FF43BAF94EA0C0F45
:100980000AD150EA01347FF434AF95EA0C0F7FF4BA
:1009900025AF104619462CE795EA0C0F06D152EA0E
:1009A00003353FF4FDAE1046194622E750EA4106F2
:1009B00018BF52EA43067FF4C5AE50EA41047FF403
:1009C0000DAF52EA43057FF4EBAE12E74FF0FF3C68
:1009D00006E000BF4FF0010C02E000BF4FF0010C39
:1009E0004DF804CD4FEA410C7FEA6C5C4FEA430CB2
:1009F00018BF7FEA6C5C1BD001B050EA410C0CBF01
:100A000052EA430C91EA030F02BF90EA020F002062
:100A1000704710F1000F91EA030F58BF994208BFC9
:100A200090422CBFD8176FEAE37040F00100704786
:100A30004FEA410C7FEA6C5C02D150EA013C07D1DD
:100A40004FEA430C7FEA6C5CD6D152EA033CD3D028
:100A50005DF8040B704700BF8446104662468C4622
:100A60001946634600E000BF01B5FFF7B7FF002855
:100A700048BF10F1000F01BD4DF808EDFFF7F4FF7E
:100A80000CBF012000205DF808FB00BF4DF808ED09
:100A9000FFF7EAFF34BF012000205DF808FB00BF2C
:100AA0004DF808EDFFF7E0FF94BF012000205DF84E
:100AB00008FB00BF4DF808EDFFF7CEFF94BF012003
:100AC00000205DF808FB00BF4DF808EDFFF7C4FFFC
:100AD00034BF012000205DF808FB00BF4FEA410C45
:100AE0007FEA6C5C02D150EA013C0AD14FEA430C28
:100AF0007FEA6C5C02D152EA033C02D14FF0000065
:100B000070474FF0010070474FEA4102B2F1E043F5
:100B100024BFB3F5001CDCF1FE5C0DD901F0004CE4
:100B20004FEAC0024CEA5070B2F1004F40EB830034
:100B300008BF20F00100704711F0804F21D113F160
:100B40003872BCBF01F00040704741F480114FEA99
:100B50005252C2F11802C2F1200C10FA0CF320FA22
:100B600002F018BF40F001004FEAC1234FEAD3233F
:100B700003FA0CFC40EA0C0023FA02F34FEA4303A9
:100B8000CCE77FEA625307D150EA01331EBF4FF032
:100B9000FE4040F44000704701F0004040F0FE404D
:100BA00040F40000704700BF80F0004002E000BF4A
:100BB00081F0004142001FBF5FEA410392EA030F48
:100BC0007FEA226C7FEA236C6AD04FEA1262D2EB92
:100BD0001363C1BFD218414048404140B8BF5B4297
:100BE000192B88BF704710F0004F40F4000020F030
:100BF0007F4018BF404211F0004F41F4000121F046
:100C00007F4118BF494292EA030F3FD0A2F101028F
:100C100041FA03FC10EB0C00C3F1200301FA03F1CD
:100C200000F0004302D5494260EB4000B0F5000FF0
:100C300013D3B0F1807F06D340084FEA310102F1AF
:100C40000102FE2A51D2B1F1004F40EBC25008BF61
:100C500020F0010040EA03007047490040EB00002B
:100C6000013A28BFB0F5000FEDD2B0FA80FCACF12C
:100C7000080CB2EB0C0200FA0CF0AABF00EBC25059
:100C800052421843BCBFD0401843704792F0000F47
:100C900081F4000106BF80F400000132013BB5E79A
:100CA0004FEA41037FEA226C18BF7FEA236C21D010
:100CB00092EA030F04D092F0000F08BF0846704775
:100CC00090EA010F1CBF0020704712F07F4F04D143
:100CD000400028BF40F00040704712F100723CBF56
:100CE00000F50000704700F0004343F0FE4040F480
:100CF000000070477FEA226216BF08467FEA23633E
:100D00000146420206BF5FEA412390EA010F40F428
:100D1000800070474FF0000304E000BF10F0004374
:100D200048BF40425FEA000C08BF704743F096435B
:100D300001464FF000001CE050EA010208BF704776
:100D40004FF000030AE000BF50EA010208BF7047FD
:100D500011F0004302D5404261EB41015FEA010C12
:100D600002BF84460146002043F0B64308BFA3F10A
:100D70008053A3F50003BCFA8CF2083AA3EBC253EC
:100D800010DB01FA02FC634400FA02FCC2F120020B
:100D9000BCF1004F20FA02F243EB020008BF20F042
:100DA0000100704702F1200201FA02FCC2F12002A8
:100DB00050EA4C0021FA02F243EB020008BF20EA9D
:100DC000DC7070474FF0FF0C1CEAD0521EBF1CEACB
:100DD000D15392EA0C0F93EA0C0F6FD01A4480EAB9
:100DE000010C400218BF5FEA41211ED04FF00063A2
:100DF00043EA501043EA5111A0FB01310CF00040CE
:100E0000B1F5000F3EBF490041EAD3715B0040EAF3
:100E1000010062F17F02FD2A1DD8B3F1004F40EBC3
:100E2000C25008BF20F00100704790F0000F0CF096
:100E3000004C08BF49024CEA502040EA51207F3A5A
:100E4000C2BFD2F1FF0340EAC250704740F4000035
:100E50004FF00003013A5DDC12F1190FDCBF00F026
:100E600000407047C2F10002410021FA02F1C2F1D4
:100E7000200200FA02FC5FEA310040F1000053EA70
:100E80004C0308BF20EADC70704792F0000F00F0BE
:100E9000004C02BF400010F4000F013AF9D040EAC4
:100EA0000C0093F0000F01F0004C02BF490011F458
:100EB000000F013BF9D041EA0C018FE70CEAD15356
:100EC00092EA0C0F18BF93EA0C0F0AD030F0004CD6
:100ED00018BF31F0004CD8D180EA010000F000408A
:100EE000704790F0000F17BF90F0004F084691F048
:100EF000000F91F0004F14D092EA0C0F01D1420282
:100F00000FD193EA0C0F03D14B0218BF084608D14A
:100F100080EA010000F0004040F0FE4040F4000094
:100F2000704740F0FE4040F4400070474FF0FF0C27
:100F30001CEAD0521EBF1CEAD15392EA0C0F93EA6E
:100F40000C0F69D0A2EB030280EA010C49024FEAC0
:100F5000402037D04FF0805343EA111143EA101379
:100F60000CF000408B4238BF5B0042F17D024FF431
:100F7000000C8B4224BF5B1A40EA0C00B3EB510F0C
:100F800024BFA3EB510340EA5C00B3EB910F24BFF5
:100F9000A3EB910340EA9C00B3EBD10F24BFA3EB7A
:100FA000D10340EADC001B0118BF5FEA1C1CE0D142
:100FB000FD2A3FF650AF8B4240EBC25008BF20F0F5
:100FC000010070470CF0004C4CEA50207F32C2BF49
:100FD000D2F1FF0340EAC250704740F400004FF0E6
:100FE0000003013A37E792F0000F00F0004C02BF17
:100FF000400010F4000F013AF9D040EA0C0093F0E1
:10100000000F01F0004C02BF490011F4000F013B3A
:10101000F9D041EA0C0195E70CEAD15392EA0C0FA2
:1010200008D142027FF47DAF93EA0C0F7FF470AFDA
:10103000084676E793EA0C0F04D14B023FF44CAF1D
:1010400008466EE730F0004C18BF31F0004CCAD1B2
:1010500030F000427FF45CAF31F000437FF43CAFEE
:101060005FE700BF4FF0FF3C06E000BF4FF0010C10
:1010700002E000BF4FF0010C4DF804CD4FEA4002F2
:101080004FEA41037FEA226C18BF7FEA236C11D03C
:1010900001B052EA530C18BF90EA010F58BFB2EBEF
:1010A000030088BFC81738BF6FEAE17018BF40F06F
:1010B000010070477FEA226C02D15FEA402C05D123
:1010C0007FEA236CE4D15FEA412CE1D05DF8040BA8
:1010D000704700BF844608466146FFE70FB5FFF73B
:1010E000C9FF002848BF10F1000F0FBD4DF808EDF3
:1010F000FFF7F4FF0CBF012000205DF808FB00BFE4
:101100004DF808EDFFF7EAFF34BF012000205DF83D
:1011100008FB00BF4DF808EDFFF7E0FF94BF01208A
:1011200000205DF808FB00BF4DF808EDFFF7D2FF87
:1011300094BF012000205DF808FB00BF4DF808EDCA
:10114000FFF7C8FF34BF012000205DF808FB00BF97
:101150004FEA4002B2F1FE4F0FD34FF09E03B3EBC4
:1011600012620DD94FEA002343F0004310F0004F04
:1011700023FA02F018BF404270474FF0000070475A
:1011800012F1610F01D1420205D110F0004008BFF9
:101190006FF0004070474FF00000704742000ED2E1
:1011A000B2F1FE4F0BD34FF09E03B3EB126209D4A2
:1011B0004FEA002343F0004323FA02F070474FF058
:1011C0000000704712F1610F01D1420202D14FF0CD
:1011D000FF3070474FF00000704700BF80B500AF90
:1011E000084B1B68074A43F010031360032000F00C
:1011F00055FD00200CF068FB0CF0E4F900231846C4
:1012000080BD00BF0020024080B400AF054B1B78BA
:101210001A46054B1B681344034A136000BFBD46C2
:1012200080BC7047040000202830002080B400AF4C
:10123000024B1B681846BD4680BC70472830002012
:1012400080B586B000AF78600023FB7500233B615A
:101250000023BB600023FB607B68002B01D10123CE
:10126000CEE07B689B68002B7B689B6A002B09D1D2
:101270007B680022DA627B68002283F82420786889
:101280000CF0D8F9786800F0FFFA0346FB757B682C
:101290009B6A03F01003002B40F0A980FB7D002B1C
:1012A00040F0A5807B689B6A23F4885323F00203F7
:1012B00043F002027B689A627B685A687B681B680D
:1012C00051498B420AD17B68DB69B3F5402F02D0CC
:1012D0007B68DB6904E04FF4002301E07B68DB6995
:1012E0001A437B681B7B5B001343BA681343BB60E4
:1012F0007B689B68B3F5807F03D07B689B68012B7C
:1013000002D14FF4807300E000233A6913433B613C
:101310007B681B7D012B19D17B681B7B002B09D1BE
:101320007B689B69013B5A033B69134343F40063A9
:101330003B610BE07B689B6A43F020027B689A620A
:101340007B68DB6A43F001027B68DA627B681B68BA
:101350005B6823F469417B681B683A690A435A60F9
:101360007B681B689A68294B13407A681268B968D1
:101370000B4393607B689B68B3F5807F03D07B68E9
:101380009B68012B04D17B681B69013B1B05FB603B
:101390007B681B68DB6A23F470017B681B68FA6852
:1013A0000A43DA627B681B689A68194B1340BA6873
:1013B0009A420BD17B680022DA627B689B6A23F039
:1013C000030343F001027B689A6218E07B689B6A22
:1013D00023F0120343F010027B689A627B68DB6A99
:1013E00043F001027B68DA620123FB7507E07B684A
:1013F0009B6A43F010027B689A620123FB75FB7DB8
:1014000018461837BD4680BD003C0140FDF7E1FF9E
:10141000FE0E1FFF80B586B000AFF860B9607A603D
:101420000023FB75FB681B68644A934204D0FB6889
:101430001B68634A934206D1604B5B6803F47023D8
:10144000002B40F0B380FB6893F82430012B01D1CE
:101450000223AEE0FB68012283F82420F86800F044
:10146000C1F90346FB75FB7D002B40F09A80FB68B9
:101470009B6A23F4706323F0010343F48072FB68DA
:101480009A62FB681B684E4A934205D14B4B5B68DE
:1014900003F47023002B15D1FB689B6A23F48012A0
:1014A000FB689A62FB681B685B6803F48063002B2F
:1014B00026D0FB689B6A23F4405343F48052FB68B8
:1014C0009A621DE0FB689B6A43F48012FB689A6293
:1014D000FB681B68394A934204D0FB681B68384A92
:1014E00093420DD1354B5B6803F48063002B07D02A
:1014F000FB689B6A23F4405343F48052FB689A6272
:10150000FB689B6A03F48053002B06D0FB68DB6A00
:1015100023F00602FB68DA6202E0FB680022DA626E
:10152000FB68002283F82420FB681B6A254A9A6224
:10153000FB681B6A244ADA62FB681B6A234A1A6347
:10154000FB681B686FF002021A60FB681B689A68F0
:10155000FB681B6842F480729A60FB68186AFB683B
:101560001B684C331946BA687B6800F051FCFB6875
:101570001B689B6803F46023B3F5602F08D1FB68F8
:101580001B689A68FB681B6842F4A0029A600FE02F
:10159000FB681B689A68FB681B6842F480129A60BB
:1015A00006E0FB68002283F8242001E00123FB759C
:1015B000FB7D18461837BD4680BD00BF00240140A2
:1015C00000280140FD180008791900089519000845
:1015D00080B483B000AF786000BF0C37BD4680BCDC
:1015E000704780B483B000AF786000BF0C37BD4651
:1015F00080BC704780B485B000AF7860396000234C
:10160000FB730023BB607B6893F82430012B01D16E
:101610000223DCE07B68012283F824203B685B68BE
:10162000062B1CD87B681B68596B3B685A681346AD
:101630009B001344053B1F2202FA03F3DB431940CE
:101640003B6818683B685A6813469B001344053B87
:1016500000FA03F27B681B680A435A633CE03B686C
:101660005B680C2B1CD87B681B68196B3B685A683D
:1016700013469B001344233B1F2202FA03F3DB4370
:1016800019403B6818683B685A6813469B0013442E
:10169000233B00FA03F27B681B680A431A631BE0D2
:1016A0007B681B68D96A3B685A6813469B001344E1
:1016B000413B1F2202FA03F3DB4319403B681868E1
:1016C0003B685A6813469B001344413B00FA03F2FF
:1016D0007B681B680A43DA623B681B68092B1CD9CC
:1016E0007B681B68D9683B681A6813465B00134423
:1016F0001E3B072202FA03F3DB4319403B6898685C
:101700003B681A6813465B0013441E3B00FA03F261
:101710007B681B680A43DA6019E07B681B681969FB
:101720003B681A6813465B001344072202FA03F36E
:10173000DB4319403B6898683B681A6813465B00B6
:10174000134400FA03F27B681B680A431A613B6882
:101750001B68102B03D03B681B68112B32D17B68B0
:101760001B681D4A934225D17B681B689B6803F464
:101770000003002B26D17B681B689A687B681B6876
:1017800042F400029A603B681B68102B1AD1134B7D
:101790001B68134AA2FB03239A0C13469B001344B5
:1017A0005B00BB6002E0BB68013BBB60BB68002B19
:1017B000F9D107E07B689B6A43F020027B689A625C
:1017C0000123FB737B68002283F82420FB7B1846EF
:1017D0001437BD4680BC7047002401403C00002007
:1017E00083DE1B4380B584B000AF78600023FB60CC
:1017F0000023BB607B681B689B6803F00103012B1F
:1018000039D07B681B689A687B681B6842F00102CC
:101810009A601B4B1B681B4AA2FB03239B0CBB60FB
:1018200002E0BB68013BBB60BB68002BF9D1FFF74E
:10183000FDFCF86018E0FFF7F9FC0246FB68D31ADC
:10184000022B11D97B689B6A43F010027B689A6275
:101850007B68DB6A43F001027B68DA627B68002206
:1018600083F82420012307E07B681B689B6803F052
:101870000103012BDFD1002318461037BD4680BD80
:101880003C00002083DE1B4380B584B000AF78604D
:101890000023FB607B681B689B6803F00103012B3E
:1018A00027D17B681B689A687B681B6822F001025D
:1018B0009A60FFF7BBFCF86014E0FFF7B7FC024644
:1018C000FB68D31A022B0DD97B689B6A43F0100288
:1018D0007B689A627B68DB6A43F001027B68DA62AC
:1018E000012307E07B681B689B6803F00103012B61
:1018F000E3D0002318461037BD4680BD80B584B0C4
:1019000000AF78607B685B6AFB60FB689B6A03F0F2
:101910005003002B27D1FB689B6A43F40072FB68DD
:101920009A62FB681B689B6803F46023B3F5602F21
:1019300015D1FB681B7B002B11D1FB689B6A23F43C
:101940008072FB689A62FB689B6A03F48053002BE9
:1019500005D1FB689B6A43F00102FB689A62F86854
:101960000BF008FA04E0FB681B6A1B6B7868984769
:1019700000BF1037BD4680BD80B584B000AF786031
:101980007B685B6AFB60F868FFF722FE00BF1037D8
:10199000BD4680BD80B584B000AF78607B685B6A6F
:1019A000FB60FB689B6A43F04002FB689A62FB683D
:1019B000DB6A43F00402FB68DA62F868FFF711FEA5
:1019C00000BF1037BD4680BD90B587B000AF7860CE
:1019D0000023FB750023FB607B6893F82430012B08
:1019E00001D1022386E07B68012283F824207868F5
:1019F000FFF74AFF0346FB75FB7D002B75D17B6823
:101A00009B6A23F4885323F0020343F002027B68AD
:101A10009A623A4B1C68022003F066FC0346B4FB52
:101A2000F3F35B00FB6002E0FB68013BFB60FB68DB
:101A3000002BF9D17868FFF7D5FE7B681B689A68A0
:101A40007B681B6842F008029A60FFF7EFFB386181
:101A500014E0FFF7EBFB02463B69D31A0A2B0DD9C2
:101A60007B689B6A23F0120343F010027B689A6242
:101A70007B68002283F8242001233BE07B681B68FD
:101A80009B6803F00803002BE3D17B681B689A680E
:101A90007B681B6842F004029A60FFF7C7FB38615D
:101AA00014E0FFF7C3FB02463B69D31A0A2B0DD99A
:101AB0007B689B6A23F0120343F010027B689A62F2
:101AC0007B68002283F82420012313E07B681B68D5
:101AD0009B6803F00403002BE3D17B689B6A23F02F
:101AE000030343F001027B689A627B68002283F85B
:101AF0002420FB7D18461C37BD4690BD3C000020CD
:101B000080B485B000AF78607B6803F00703FB60AA
:101B10000C4BDB68BB60BA684FF6FF031340BB6039
:101B2000FB681A02BB68134343F0BF6343F40033FE
:101B3000BB60044ABB68D36000BF1437BD4680BC9D
:101B4000704700BF00ED00E080B400AF044BDB68DD
:101B50001B0A03F007031846BD4680BC704700BF50
:101B600000ED00E080B483B000AF0346FB7197F94D
:101B70000730002B0BDBFB7903F01F02064997F9B6
:101B800007305B09012000FA02F241F8232000BF70
:101B90000C37BD4680BC704700E100E080B483B0E4
:101BA00000AF0346FB7197F90730002B12DBFB797E
:101BB00003F01F020A4997F907305B09012000FA78
:101BC00002F2203341F82320BFF34F8F00BFBFF351
:101BD0006F8F00BF00BF0C37BD4680BC704700BF91
:101BE00000E100E080B483B000AF03463960FB71D0
:101BF00097F90730002B0ADB3B68DAB20C4997F9FA
:101C000007301201D2B20B4483F800230AE03B688C
:101C1000DAB20849FB7903F00F03043B1201D2B298
:101C20000B441A7600BF0C37BD4680BC704700BF1E
:101C300000E100E000ED00E080B489B000AFF860A2
:101C4000B9607A60FB6803F00703FB61FB69C3F1CD
:101C50000703042B28BF0423BB61FB690433062B55
:101C600002D9FB69033B00E000237B614FF0FF32A8
:101C7000BB6902FA03F3DA43BB681A407B699A40F6
:101C80004FF0FF317B6901FA03F3D9437B680B40C6
:101C9000134318462437BD4680BC704780B582B0D8
:101CA00000AF78607868FFF72BFF00BF0837BD46AC
:101CB00080BD80B586B000AF0346B9607A60FB7323
:101CC00000237B61FFF740FF78617A68B968786923
:101CD000FFF7B2FF024697F90F3011461846FFF79B
:101CE00081FF00BF1837BD4680BD80B582B000AF10
:101CF0000346FB7197F907301846FFF733FF00BF23
:101D00000837BD4680BD80B582B000AF0346FB7189
:101D100097F907301846FFF741FF00BF0837BD4667
:101D200080BD000080B485B000AF78600023FB6008
:101D30007B68002B01D1012359E07B681B681A46A0
:101D40002D4B9A420FD87B681B681A462B4B1344C5
:101D50002B4AA2FB03231B099A007B681A647B6849
:101D6000284ADA630EE07B681B681A46264B134448
:101D7000234AA2FB03231B099A007B681A647B6831
:101D8000224ADA637B68022283F821207B681B6881
:101D90001B68FB60FB6823F47F5323F03003FB6078
:101DA0007B685A687B689B681A437B68DB681A43C8
:101DB0007B681B691A437B685B691A437B689B6974
:101DC0001A437B68DB691343FA681343FB607B6843
:101DD0001B68FA681A607B6800229A637B6801229C
:101DE00083F821207B68002283F8202000231846F6
:101DF0001437BD4680BC704707040240F8FFFDBFA2
:101E0000CDCCCCCC00000240F8FBFDBF000402406A
:101E100080B586B000AFF860B9607A603B6000239F
:101E2000FB75FB6893F82030012B01D102234AE0B7
:101E3000FB68012283F82020FB6893F82130012BF6
:101E40003AD1FB68022283F82120FB6800229A63C2
:101E5000FB681B681A68FB681B6822F001021A60A5
:101E60003B687A68B968F86800F082FBFB68DB6A57
:101E7000002B08D0FB681B681A68FB681B6842F0DF
:101E80000E021A600FE0FB681B681A68FB681B688B
:101E900022F004021A60FB681B681A68FB681B6862
:101EA00042F00A021A60FB681B681A68FB681B682C
:101EB00042F001021A6005E0FB68002283F820204E
:101EC0000223FB75FB7D18461837BD4680BD000018
:101ED00080B584B000AF78600023FB737B6893F813
:101EE0002130022B05D07B6804229A630123FB7307
:101EF000D6E07B681B681A687B681B6822F00E02BC
:101F00001A607B681B681A687B681B6822F00102F4
:101F10001A607B681B681A46644B9A4258D97B68E2
:101F20001B68634A93424FD07B681B68614A9342A7
:101F300048D07B681B68604A934240D07B681B682E
:101F40005E4A934238D07B681B685D4A934230D02A
:101F50007B681B685B4A934228D07B681B68534AA6
:101F6000934220D07B681B68574A934219D07B6804
:101F70001B68564A934212D07B681B68544A9342AE
:101F80000AD07B681B68534A934202D14FF48053B6
:101F90001BE04FF4803318E04FF4807315E01023FA
:101FA00013E0012311E04FF080730EE04FF4801333
:101FB0000BE04FF4803308E04FF4805305E04FF41A
:101FC000807302E0102300E00123434A536057E08E
:101FD0007B681B68364A93424FD07B681B68354A42
:101FE000934248D07B681B68334A934240D07B6859
:101FF0001B68324A934238D07B681B68304A934250
:1020000030D07B681B682F4A934228D07B681B68BE
:10201000264A934220D07B681B682B4A934219D0F2
:102020007B681B68294A934212D07B681B68284A48
:1020300093420AD07B681B68264A934202D14FF430
:1020400080531BE04FF4803318E04FF4807315E0A9
:10205000102313E0012311E04FF080730EE04FF4E2
:1020600080130BE04FF4803308E04FF4805305E019
:102070004FF4807302E0102300E00123174A5360FD
:102080007B68012283F821207B68002283F82020CE
:102090007B685B6B002B03D07B685B6B7868984731
:1020A000FB7B18461037BD4680BD00BF8000024054
:1020B000080002401C000240300002404400024080
:1020C000580002406C000240080402401C04024018
:1020D0003004024044040240000402400000024078
:1020E00080B584B000AF78607B68DB6B1B68FB60F9
:1020F0007B681B681B68BB607B681B6C04229A4072
:10210000FB681340002B00F0D680BB6803F004038B
:10211000002B00F0D0807B681B681B6803F0200355
:10212000002B07D17B681B681A687B681B6822F04C
:1021300004021A607B681B681A469B4B9A4258D966
:102140007B681B68994A93424FD07B681B68984A0A
:10215000934248D07B681B68964A934240D07B6884
:102160001B68954A934238D07B681B68934A934218
:1021700030D07B681B68924A934228D07B681B68EA
:10218000894A934220D07B681B688E4A934219D0BB
:102190007B681B688C4A934212D07B681B688B4A11
:1021A00093420AD07B681B68894A934202D14FF45C
:1021B00080431BE04FF4802318E04FF4806315E068
:1021C000402313E0042311E04FF080630EE04FF44E
:1021D00080030BE04FF4802308E04FF4804305E0D8
:1021E0004FF4806302E0402300E00423794A536007
:1021F00057E07B681B686D4A93424FD07B681B6831
:102200006B4A934248D07B681B686A4A934240D02D
:102210007B681B68684A934238D07B681B68674AB2
:10222000934230D07B681B68654A934228D07B6814
:102230001B685D4A934220D07B681B68614A9342C9
:1022400019D07B681B68604A934212D07B681B6878
:102250005E4A93420AD07B681B685D4A934202D172
:102260004FF480431BE04FF4802318E04FF4806369
:1022700015E0402313E0042311E04FF080630EE0EB
:102280004FF480030BE04FF4802308E04FF48043C9
:1022900005E04FF4806302E0402300E004234E4A4F
:1022A00053607B68DB6A002B00F036817B68DB6A59
:1022B0007868984730E17B681B6C02229A40FB6883
:1022C0001340002B00F0F880BB6803F00203002BE2
:1022D00000F0F2807B681B681B6803F02003002B72
:1022E0000BD17B681B681A687B681B6822F00A02A6
:1022F0001A607B68012283F821207B681B681A46DC
:10230000294B9A4273D97B681B68284A93426AD04A
:102310007B681B68264A934263D07B681B68254A0A
:1023200093425BD07B681B68234A934238D07B681A
:102330001B68224A934230D07B681B68204A934234
:1023400028D07B681B68184A934220D07B681B68A2
:102350001C4A934219D07B681B681B4A934212D0D7
:102360007B681B68194A93420AD07B681B68184A2D
:10237000934202D14FF4005336E04FF4003333E080
:102380004FF4007330E020232EE002232CE04FF0C6
:10239000007329E04FF4001326E04FF4003323E0EC
:1023A0004FF4005320E000BF8000024008000240CC
:1023B0001C0002403000024044000240580002402D
:1023C0006C000240080402401C0402403004024039
:1023D0004404024000040240000002404FF4007335
:1023E00002E0202300E002234E4A536057E07B685E
:1023F0001B684D4A93424FD07B681B684B4A9342FF
:1024000048D07B681B684A4A934240D07B681B686F
:10241000484A934238D07B681B68474A934230D081
:102420007B681B68454A934228D07B681B68444AF6
:10243000934220D07B681B68424A934219D07B6844
:102440001B68414A934212D07B681B683F4A934203
:102450000AD07B681B683E4A934202D14FF4005376
:102460001BE04FF4003318E04FF4007315E0202315
:1024700013E0022311E04FF000730EE04FF400135D
:102480000BE04FF4003308E04FF4005305E04FF445
:10249000007302E0202300E002232E4A53607B6891
:1024A000002283F820207B689B6A002B34D07B6855
:1024B0009B6A786898472FE07B681B6C08229A40DB
:1024C000FB681340002B28D0BB6803F00803002BE7
:1024D00023D07B681B681A687B681B6822F00E0299
:1024E0001A607B681A6C7B68DB6B012101FA02F2CF
:1024F0005A607B6801229A637B68012283F821205D
:102500007B68002283F820207B681B6B002B04D0A3
:102510007B681B6B7868984700BF00BF1037BD46CB
:1025200080BD00BF00040240080002401C000240C1
:102530003000024044000240580002406C0002405B
:1025400080000240080402401C04024030040240A3
:10255000440402400000024080B483B000AF7860C1
:102560007B6893F8213018460C37BD4680BC704715
:1025700080B485B000AFF860B9607A603B60FB68FA
:102580001A6CFB68DB6B012101FA02F25A60FB68EE
:102590001B683A685A60FB685B68102B08D1FB68BF
:1025A0001B687A689A60FB681B68BA68DA6007E0A3
:1025B000FB681B68BA689A60FB681B687A68DA6017
:1025C00000BF1437BD4680BC7047000080B48BB09C
:1025D00000AF7860396000237B6200233B6279E1C1
:1025E00001227B6A02FA03F3FB613B681B68FA690C
:1025F0001340BB61BA69FB699A4240F068813B684D
:102600005B68A04A93425ED09E4A934275D89E4A28
:10261000934258D09C4A93426FD89C4A934252D0DE
:102620009A4A934269D89A4A93424CD0984A934224
:1026300063D8984A934246D0964A93425DD8122B6B
:102640002AD8122B59D801A252F823F0C726000825
:10265000A1260008B3260008F5260008FB2600087E
:10266000FB260008FB260008FB260008FB260008C6
:10267000FB260008FB260008FB260008FB260008B6
:10268000FB260008FB260008FB260008FB260008A6
:10269000A9260008BD2600087F4A934213D02CE0EB
:1026A0003B68DB683B6229E03B68DB6804333B62E4
:1026B00024E03B68DB6808333B621FE03B68DB6873
:1026C0000C333B621AE03B689B68002B02D1042369
:1026D0003B6213E03B689B68012B05D108233B62FA
:1026E0007B68FA691A6109E008233B627B68FA6932
:1026F0005A6103E000233B6200E000BFBB69FF2B8F
:1027000001D87B6801E07B6804337B61BB69FF2BE8
:1027100002D87B6A9B0002E07B6A083B9B003B611E
:102720007B691A680F213B6901FA03F3DB431A4006
:10273000396A3B6901FA03F31A437B691A603B6803
:102740005B6803F08053002B00F0C180534B9B6902
:10275000524A43F001039361504B9B6903F001031C
:10276000BB60BB684E4A7B6A9B08023352F8233039
:10277000FB607B6A03F003039B000F2202FA03F362
:10278000DB43FA681340FB607B68464A93421FD0E4
:102790007B68454A934219D07B68444A934213D0E0
:1027A0007B68434A93420DD07B68424A934207D0EC
:1027B0007B68414A934201D105230AE0062308E0E1
:1027C000042306E0032304E0022302E0012300E0E7
:1027D00000237A6A02F0030292009340FA681343DE
:1027E000FB602F497B6A9B080233FA6841F823207B
:1027F0003B685B6803F48033002B06D02F4B1A68CC
:102800002E49BB6913430B6006E02C4B1A68BB6969
:10281000DB432A4913400B603B685B6803F40033D9
:10282000002B06D0254B5A682449BB6913434B60E3
:1028300006E0224B5A68BB69DB43204913404B60DA
:102840003B685B6803F48013002B06D01B4B9A682F
:102850001A49BB6913438B6006E0184B9A68BB6941
:10286000DB43164913408B603B685B6803F400133D
:10287000002B25D0114BDA681049BB691343CB609C
:1028800025E000BF000032100000311000002210CF
:102890000000211000001210000011100010024072
:1028A0000000014000080140000C01400010014000
:1028B0000014014000180140001C014000040140C8
:1028C0000B4BDA68BB69DB4309491340CB607B6A79
:1028D00001337B623B681A687B6A22FA03F3002BA0
:1028E0007FF47EAE00BF00BF2C37BD4680BC704772
:1028F0000004014080B489B000AF786039600023E3
:10290000FB61A6E00122FB6902FA03F33A68134077
:10291000BB61BB69002B00F09980544AFB699B089E
:10292000023352F823307B61FB6903F003039B0001
:102930000F2202FA03F37A6913407B617B684C4AE9
:1029400093421FD07B684B4A934219D07B684A4A16
:10295000934213D07B68494A93420DD07B68484A22
:10296000934207D07B68474A934201D105230AE08E
:10297000062308E0042306E0032304E0022302E028
:10298000012300E00023FA6902F003029200934061
:102990007A699A4232D1FB6903F003039B000F224C
:1029A00002FA03F37B61314AFB699B08023352F858
:1029B00023107B69DA432D48FB699B080A400233E8
:1029C00040F82320304B1A68BB69DB432E49134083
:1029D0000B602D4B5A68BB69DB432B4913404B609E
:1029E000294B9A68BB69DB43274913408B60264B10
:1029F000DA68BB69DB4324491340CB60BB69FF2B1A
:102A000001D87B6801E07B6804333B61BB69FF2B25
:102A100002D8FB699B0002E0FB69083B9B00FB605E
:102A20003B691A680F21FB6801FA03F3DB431A4084
:102A30000421FB6801FA03F31A433B691A607B68BF
:102A4000DA68BB69DB431A407B68DA60FB690133F3
:102A5000FB613A68FB6922FA03F3002B7FF452AF63
:102A600000BF00BF2437BD4680BC70470000014056
:102A700000080140000C014000100140001401401A
:102A800000180140001C01400004014080B485B0E2
:102A900000AF78600B467B807B689A687B88134028
:102AA000002B02D00123FB7301E00023FB73FB7BAF
:102AB00018461437BD4680BC704780B483B000AF61
:102AC00078600B467B8013467B707B78002B03D0AD
:102AD0007A887B681A6103E07B881A047B681A6134
:102AE00000BF0C37BD4680BC704780B483B000AFD8
:102AF00078600B467B807B68DA687B881340002B0C
:102B000003D07A887B685A6102E07A887B681A6110
:102B100000BF0C37BD4680BC7047000080B584B054
:102B200000AF78607B68002B01D1012323E17B6833
:102B300093F83D30DBB2002B06D17B68002283F88E
:102B40003C2078680AF0DEFD7B68242283F83D2073
:102B50007B681B681A687B681B6822F001021A6098
:102B600002F096FAF8607B685B68854A934207D862
:102B7000FB68844A934294BF01230023DBB206E042
:102B8000FB68814A934294BF01230023DBB2002BF0
:102B900001D00123EFE0FB687C4AA2FB03239B0CDE
:102BA000BB607B681B681A687B681B6822F4004264
:102BB0001A607B681B685B6823F03F017B681B68B9
:102BC000BA680A435A607B681B681B6A23F03F019E
:102BD0007B685B686A4A934202D8BB68013309E0AC
:102BE000BB684FF4967202FB03F3694AA2FB03230E
:102BF0009B0901337A6812680B4313627B681B6878
:102C0000DB6923F44F4222F0FF027B685B685C497A
:102C10008B4219D8FB68591E7B685B685B00B1FB6F
:102C2000F3F3591C40F6FC730B40002B0AD0FB68F1
:102C3000591E7B685B685B00B1FBF3F30133C3F3A0
:102C40000B0351E004234FE07B689B68002B11D1FC
:102C5000FB68581E7B6859680B465B000B44B0FB51
:102C6000F3F30133C3F30B03002B0CBF0123002349
:102C7000DBB212E0FB68581E7B6859680B469B006C
:102C80000B4499000B44B0FBF3F30133C3F30B0384
:102C9000002B0CBF01230023DBB2002B01D001234A
:102CA00022E07B689B68002B0ED1FB68581E7B6876
:102CB00059680B465B000B44B0FBF3F30133C3F3DD
:102CC0000B0343F400430FE0FB68581E7B68596810
:102CD0000B469B000B4499000B44B0FBF3F301330C
:102CE000C3F30B0343F44043796809681343CB6192
:102CF0007B681B681B6823F0C0017B68DA697B680E
:102D00001B6A1A437B681B680A431A607B681B684E
:102D10009B6823F4034323F0FF037A6811697A6800
:102D2000D26811437A6812680B4393607B681B6812
:102D3000DB6823F0FF017B685A697B689B691A4353
:102D40007B681B680A43DA607B681B681A687B68CB
:102D50001B6842F001021A607B6800221A647B68DB
:102D6000202283F83D207B6800221A637B680022C2
:102D700083F83E20002318461037BD4680BD00BFB3
:102D8000A08601007F841E00FF083D0083DE1B43F8
:102D9000D34D621080B582B000AF78607B68002BA5
:102DA00001D1012321E07B68242283F83D207B6848
:102DB0001B681A687B681B6822F001021A60786839
:102DC0000AF0EEFC7B6800221A647B68002283F81C
:102DD0003D207B6800221A637B68002283F83E2036
:102DE0007B68002283F83C20002318460837BD4644
:102DF00080BD000080B487B000AFF8607A601A46EA
:102E00000B467B8113463B8100237B61FB6893F873
:102E10003D30DBB2202B40F08580454B1B68DB0842
:102E2000444AA2FB03231A0A13469B0013449A0048
:102E300013447B617B69013B7B617B69002B16D16D
:102E4000FB6800221A63FB68202283F83D20FB68A0
:102E5000002283F83E20FB681B6C43F02002FB68D5
:102E60001A64FB68002283F83C2001235BE0FB68C6
:102E70001B689B6903F00203022BDBD0FB6893F80D
:102E80003C30012B01D102234DE0FB68012283F885
:102E90003C20FB681B681B6803F00103012B07D073
:102EA000FB681B681A68FB681B6842F001021A6025
:102EB000FB681B681A68FB681B6822F400621A60D2
:102EC000FB68212283F83D20FB68102283F83E2016
:102ED000FB6800221A64FB687A685A62FB683A89C8
:102EE0005A85FB685B8D9AB2FB681A85FB68124AAB
:102EF000DA627A89FB685A64FB681B681A68FB68A7
:102F00001B6842F480721A60FB68002283F83C2040
:102F1000FB681B685A68FB681B6842F4E0625A60F1
:102F2000002300E0022318461C37BD4680BC7047D2
:102F30003C00002089B5F8140000FFFF80B487B082
:102F400000AFF8607A601A460B467B8113463B81DE
:102F500000237B61FB6893F83D30DBB2202B40F00F
:102F60008D80494B1B68DB08484AA2FB03231A0AE1
:102F700013469B0013449A0013447B617B69013B19
:102F80007B617B69002B16D1FB6800221A63FB680A
:102F9000202283F83D20FB68002283F83E20FB6856
:102FA0001B6C43F02002FB681A64FB68002283F864
:102FB0003C20012363E0FB681B689B6903F002036C
:102FC000022BDBD0FB6893F83C30012B01D10223AC
:102FD00055E0FB68012283F83C20FB681B681B68F6
:102FE00003F00103012B07D0FB681B681A68FB681C
:102FF0001B6842F001021A60FB681B681A68FB68D4
:103000001B6822F400621A60FB68222283F83D20CC
:10301000FB68102283F83E20FB6800221A64FB68DC
:103020007A685A62FB683A895A85FB685B8D9AB266
:10303000FB681A85FB68164ADA627A89FB685A646B
:10304000FB681B681A68FB681B6842F480621A60A0
:10305000FB681B681A68FB681B6842F480721A6080
:10306000FB68002283F83C20FB681B685A68FB68F9
:103070001B6842F4E0625A60002300E00223184615
:103080001C37BD4680BC70473C00002089B5F81451
:103090000000FFFF80B582B000AF78600B467B80F8
:1030A0007B6893F83E30DBB2102B35D17B6893F808
:1030B0003C30012B01D102232FE07B68012283F8F1
:1030C0003C207B6800221A637B68602283F83D20E5
:1030D0007B681B681A687B681B6822F480621A6030
:1030E0007B681B681A687B681B6842F400721A6070
:1030F0007B6800225A857B681B685A687B681B685E
:1031000022F4E0625A607B68002283F83C207868F1
:1031100001F03EFA002300E0012318460837BD46BF
:1031200080BD000080B588B000AF78600023BB612F
:103130007B681B685B687B617B68DB6A3B617B68E3
:1031400093F83E30FB737B6893F83D30BB73FB7B99
:10315000102B03D0FB7B402B40F0DA807B681B6890
:103160009B69BB617B681B685B69FB61FB6903F062
:103170000103002B0DD13B69B3F52A0F03D03B6946
:10318000B3F12A4F01D1012300E00023012B00F00D
:103190004B81FB6903F00103002B0CD07B695B0AB8
:1031A00003F00103002B06D0786801F076FB786805
:1031B00000F005FDABE0FB69DB0803F00103002B29
:1031C00009D07B695B0A03F00103002B03D0786808
:1031D00000F07AFD9BE0FB695B0803F00103002B24
:1031E00009D07B695B0A03F00103002B03D07868E8
:1031F00000F093FD8BE0BB699B0803F00103002BFB
:1032000030D07B681B685B6803F40063B3F5006F24
:1032100000F00C81FB69DB0903F00103002B0FD0E8
:103220007B699B0A03F00103002B09D0FB699B0813
:1032300003F00103002B03D1786800F0E6F966E0A3
:10324000FB699B0803F00103002B00F0EF807B6912
:103250005B0A03F00103002B00F0E880786800F0BF
:10326000CCFAE3E07B681B685B6803F40063B3F5AA
:10327000006F00F0DB80FB699B0903F00103002B6A
:103280000FD07B699B0A03F00103002B09D0FB6977
:103290009B0803F00103002B03D1786800F023FBA7
:1032A00035E0FB699B0803F00103002B09D07B6923
:1032B0005B0A03F00103002B03D0786800F095FB54
:1032C00025E05D4B1B780133DAB25B4B1A705A4B29
:1032D0001B78142B0AD97B681B681A687B681B68EB
:1032E00042F400421A60544B00221A707B681B683B
:1032F0001B6803F40043002B00F098807B681B6878
:103300001A687B681B6822F400421A608EE08DE028
:103310007B681B6C002B04D07B681B685B69FB61BE
:1033200007E07B681B689B69BB617B681B685B6906
:10333000FB61FB695B0803F00103002B12D07B6982
:103340005B0A03F00103002B0CD07B681B6C002B85
:1033500003D07B681B689B69BB61B969786800F022
:1033600033FF66E0FB691B0903F00103002B09D062
:103370007B695B0A03F00103002B03D0786800F03F
:1033800067FF56E0BB7B212B02D0BB7B292B25D1CD
:10339000FB69DB0903F00103002B0FD07B699B0A5B
:1033A00003F00103002B09D0FB699B0803F0010324
:1033B000002B03D1786800F04BFE39E0FB699B08D5
:1033C00003F00103002B33D07B695B0A03F0010398
:1033D000002B2DD0786800F078FE29E0FB699B096E
:1033E00003F00103002B0FD07B699B0A03F001035C
:1033F000002B09D0FB699B0803F00103002B03D1CC
:10340000786800F082FE14E0FB699B0803F001037A
:10341000002B0ED07B695B0A03F00103002B08D060
:10342000786800F0B0FE04E000BF02E000BF00E0FA
:1034300000BF2037BD4680BDC400002080B58AB0E3
:1034400000AF78607B681B685B693B627B681B68C8
:103450005B68FB6100237B623B6A1B0A03F001038C
:10346000002B16D0FB691B0A03F00103002B10D0C0
:103470007B6A43F001037B627B681B686FF4807298
:103480005A617B681B681A687B681B6842F40042BB
:103490001A603B6A5B0A03F00103002B0ED0FB6944
:1034A0001B0A03F00103002B08D07B6A43F00203E0
:1034B0007B627B681B686FF400725A613B6A9B0AEF
:1034C00003F00103002B41D0FB691B0A03F0010349
:1034D000002B3BD07B6893F83E30FB767B685B8D9E
:1034E0009BB27B617B6893F83D30FB747B681B6B00
:1034F000FB60FB7E202B12D17B69002B0FD1FB7C64
:10350000212B08D0FB7C292B05D0FB7C282B06D156
:10351000FB68212B03D1786800F0CAFF16E07B68B6
:103520001B686FF480625A617B6A43F004037B621C
:103530007B6893F83E30DBB2102B07D17B681B68A9
:103540001A687B681B6842F400721A603B6ADB0AE7
:1035500003F00103002B0ED0FB691B0A03F00103EB
:10356000002B08D07B6A43F008037B627B681B68F2
:103570006FF400625A617B6A002B08D07B681A6C7A
:103580007B6A1A437B681A64786801F001F800BF0F
:103590002837BD4680BD80B483B000AF786000BFDF
:1035A0000C37BD4680BC704780B483B000AF7860F4
:1035B00000BF0C37BD4680BC704780B483B000AFFD
:1035C00078600B46FB7013463B8000BF0C37BD464E
:1035D00080BC704780B483B000AF786000BF0C3708
:1035E000BD4680BC704780B483B000AF786000BF38
:1035F0000C37BD4680BC704780B483B000AF7860A4
:1036000000BF0C37BD4680BC704780B584B000AFAA
:1036100078607B6893F83D30FB737B6893F83E30AD
:10362000BB737B68DB6ABB607B681B8D002B50D152
:10363000FB7B212B4DD1BB68082B1DD0BB68202BF9
:103640001AD0BB6813F5803F16D07B681B685A6898
:103650007B681B6822F4E0625A607B6811221A635F
:103660007B68002283F83E207B68202283F83D207F
:10367000786807F0E3FBBCE07B681B685A687B68EE
:103680001B6822F4E0625A607B681B681A687B68DA
:103690001B6842F400721A607B6800221A637B6820
:1036A000202283F83D207B6893F83E30DBB2402B2C
:1036B00007D17B68002283F83E207868FFF793FFEC
:1036C00097E07B68002283F83E20786807F0B6FB1D
:1036D0008FE0FB7B212B07D0BB7B402B40F0898008
:1036E000FB7B222B40F085807B685B8D9BB2002B9F
:1036F00008D17B681B685A687B681B6822F480626B
:103700005A6076E07B6893F83E30DBB2402B5DD1A7
:103710007B681B6D002B1DD17B68DB6C012B0BD1F3
:103720007B689B6CDAB27B681B681A617B681B6DD7
:103730009A1C7B681A655CE07B689B6C9BB21B12D1
:10374000DAB27B681B681A617B681B6D5A1C7B6848
:103750001A654EE07B681B6D012B0BD17B689B6C5F
:10376000DAB27B681B681A617B681B6D5A1C7B6828
:103770001A653EE07B681B6D022B3AD17B6893F89B
:103780003D30DBB2222B08D17B681B681A687B684E
:103790001B6842F480721A602BE07B6893F83D301E
:1037A000DBB2212B25D17B685B6A1A787B681B68AA
:1037B0001A617B685B6A5A1C7B685A627B685B8D06
:1037C0009BB2013B9AB27B685A8512E07B685B6AC8
:1037D0001A787B681B681A617B685B6A5A1C7B6875
:1037E0005A627B685B8D9BB2013B9AB27B685A85BB
:1037F000FFE700BF1037BD4680BD80B584B000AF85
:1038000078607B68DB6AFB607B6893F83D30DBB2F5
:10381000212B64D17B685B8D9BB2002B12D07B681F
:103820005B6A1A787B681B681A617B685B6A5A1C42
:103830007B685A627B685B8D9BB2013B9AB27B6866
:103840005A854CE0FB68082B1DD0FB68202B1AD052
:10385000FB6813F5803F16D07B681B685A687B684D
:103860001B6822F4E0625A607B6811221A637B684D
:10387000002283F83E207B68202283F83D20786870
:1038800007F0DCFA2BE07B681B685A687B681B68D2
:1038900022F4E0625A607B681B681A687B681B68C8
:1038A00042F400721A607B6800221A637B6820224F
:1038B00083F83D207B6893F83E30DBB2402B07D184
:1038C0007B68002283F83E207868FFF78CFE06E0D4
:1038D0007B68002283F83E20786807F0AFFA00BFCB
:1038E0001037BD4680BD80B584B000AF78607B687E
:1038F00093F83D30DBB2222B73D17B685B8D9BB29A
:10390000FB60FB68032B20D97B681B681A697B6806
:103910005B6AD2B21A707B685B6A5A1C7B685A6217
:103920007B685B8D9BB2013B9AB27B685A857B6852
:103930005B8D9BB2032B54D17B681B685A687B68F4
:103940001B6822F480625A604BE07B68DB6A022BC2
:1039500047D0FB68012B02D0FB68002B41D17B686C
:103960001B681A687B681B6822F480621A607B6897
:103970001B685A687B681B6822F4E0625A607B68A7
:103980001B681A697B685B6AD2B21A707B685B6AD3
:103990005A1C7B685A627B685B8D9BB2013B9AB272
:1039A0007B685A857B68202283F83D207B6893F8EA
:1039B0003E30DBB2402B0AD17B68002283F83E20E8
:1039C0007B6800221A637868FFF716FE09E07B68BF
:1039D000002283F83E207B6812221A63786807F081
:1039E0003DFA00BF1037BD4680BD80B584B000AF42
:1039F00078607B68DB6AFB607B685B8D9BB2042B25
:103A00001BD17B681B685A687B681B6822F4806244
:103A10005A607B681B681A697B685B6AD2B21A704D
:103A20007B685B6A5A1C7B685A627B685B8D9BB2C1
:103A3000013B9AB27B685A85BDE07B685B8D9BB287
:103A4000032B29D17B681B685A687B681B6822F4AA
:103A500080625A60FB68042B0AD0FB68022B07D0F7
:103A60007B681B681A687B681B6822F480621A6096
:103A70007B681B681A697B685B6AD2B21A707B68C4
:103A80005B6A5A1C7B685A627B685B8D9BB2013B08
:103A90009AB27B685A858EE07B685B8D9BB2022B65
:103AA00076D1FB68012B02D0FB68102B08D17B6814
:103AB0001B681A687B681B6822F480621A6019E030
:103AC000FB68042B02D0FB68022B08D17B681B68C3
:103AD0001A687B681B6842F480621A600AE0FB681F
:103AE000102B07D07B681B681A687B681B6842F440
:103AF00000721A607B681B681A697B685B6AD2B2C5
:103B00001A707B685B6A5A1C7B685A627B685B8DA3
:103B10009BB2013B9AB27B685A857B681B681A6925
:103B20007B685B6AD2B21A707B685B6A5A1C7B68DE
:103B30005A627B685B8D9BB2013B9AB27B685A8567
:103B40007B681B685A687B681B6822F440725A6065
:103B50007B68202283F83D207B6893F83E30DBB2FF
:103B6000402B0AD17B68002283F83E207B6800222C
:103B70001A637868FFF740FD1DE07B68002283F838
:103B80003E207B6812221A63786807F067F912E01A
:103B90007B681B681A697B685B6AD2B21A707B68A3
:103BA0005B6A5A1C7B685A627B685B8D9BB2013BE7
:103BB0009AB27B685A8500BF1037BD4680BD80B47D
:103BC00083B000AF78607B6893F83E30DBB2402B67
:103BD00017D17B681B6D002B09D17B685B6CDBB256
:103BE0001A467B681B6802F0FE021A6167E07B6878
:103BF0005B6CDBB243F00103DAB27B681B681A61CD
:103C00005DE07B681B69B3F5804F33D17B6893F827
:103C10003D30DBB2212B09D17B685B6CDBB21A46ED
:103C20007B681B6802F0FE021A6108E07B685B6C2F
:103C3000DBB243F00103DAB27B681B681A617B6870
:103C40005B6B002B03D17B689B6B002B37D07B68B1
:103C50005B6B9B6A002B04D17B689B6B9B6A002B80
:103C60002DD07B681B685A687B681B6842F4006231
:103C70005A6024E07B681B6D002B0ED17B685B6C67
:103C80009BB2DB11DBB203F00603DBB263F00F0380
:103C9000DAB27B681B681A6111E07B681B6D012B2F
:103CA0000DD17B685B6C9BB2DB11DBB203F00603CA
:103CB000DBB263F00E03DAB27B681B681A6100BFE7
:103CC0000C37BD4680BC704780B483B000AF7860CD
:103CD0007B685B6CDAB27B681B681A617B685B6B24
:103CE000002B03D17B689B6B002B11D07B685B6B37
:103CF0009B6A002B04D17B689B6B9B6A002B07D0CF
:103D00007B681B685A687B681B6842F400625A60D3
:103D100000BF0C37BD4680BC704780B491B000AF87
:103D200078607B6893F83E3087F83F307B68DB6AC9
:103D3000BB637B681B6B7B637B6893F83D30DBB2B6
:103D4000222B40F074817B681B6D002B0FD197F8FC
:103D50003F30402B0BD100233B637B681B685B69C2
:103D60003B637B681B689B693B633B6B6BE17B68D8
:103D70001B6D002B1DD17B681B69B3F5404F18D11B
:103D80000023FB627B681B685B69FB627B681B68C6
:103D90009B69FB62FB6A7B681B681A687B681B680F
:103DA00042F480721A607B681B6D5A1C7B681A652E
:103DB00049E17B685B8D9BB2002B13D10023BB6272
:103DC0007B681B685B69BB627B681B689B69BB6225
:103DD000BB6A7B681B681A687B681B6842F40072C8
:103DE0001A6020E17B685B8D9BB2012B40F08A80DA
:103DF000BB6B13F5803F37D17B681B681A687B6803
:103E00001B6822F480621A607B681B685B6803F49D
:103E10000063B3F5006F13D17B681B681A687B6879
:103E20001B6822F480621A6000237B627B681B6837
:103E30005B697B627B681B689B697B627B6AF2E0E3
:103E400000233B627B681B685B693B627B681B6885
:103E50009B693B623B6A7B681B681A687B681B68CE
:103E600042F400721A60DEE0BB6B082B2ED0BB6BF5
:103E7000202B2BD07B6B122B02D1BB6B012B25D1BE
:103E8000BB6B042B0ED0BB6B022B0BD0BB6B102B70
:103E900008D07B681B681A687B681B6822F4806204
:103EA0001A6007E07B681B681A687B681B6842F42D
:103EB00080621A600023FB617B681B685B69FB61A1
:103EC0007B681B689B69FB61FB69ACE07B681B68D6
:103ED0001A687B681B6822F480621A600023BB6149
:103EE0007B681B685B69BB617B681B689B69BB6106
:103EF000BB697B681B681A687B681B6842F40072A8
:103F00001A6090E07B685B8D9BB2022B58D1BB6B33
:103F1000042B21D0BB6B022B1ED0BB6B102B1BD0F4
:103F20007B681B681A687B681B6842F400621A6031
:103F300000237B617B681B685B697B617B681B6816
:103F40009B697B617B697B681B681A687B681B685F
:103F500022F480621A6012E07B681B681A687B6832
:103F60001B6842F480621A6000233B617B681B6817
:103F70005B693B617B681B689B693B613B697B6854
:103F80001B685B6803F40063B3F5006F4BD1BB6B38
:103F900013F5803F0BD0BB6B012B08D0BB6B082BFC
:103FA00005D0BB6B102B02D0BB6B202B3BD17B68A9
:103FB0001B685A687B681B6842F480525A6032E082
:103FC0007B681B681A687B681B6842F480621A6011
:103FD0007B681B685B6803F40063B3F5006F17D15F
:103FE000BB6B13F5803F0BD0BB6B012B08D0BB6BB9
:103FF000082B05D0BB6B102B02D0BB6B202B07D13D
:104000007B681B685A687B681B6842F480525A6060
:104010000023FB607B681B685B69FB607B681B6837
:104020009B69FB60FB687B6800221A650BE000233C
:10403000BB607B681B685B69BB607B681B689B69B6
:10404000BB60BB68FFE700BF4437BD4680BC70471C
:1040500080B584B000AF78607B6893F83D30FB7327
:104060007B685B8D9BB2002B2BD07B685B6A1A78D8
:104070007B681B681A617B685B6A5A1C7B685A62A2
:104080007B685B8D9BB2013B9AB27B685A857B68EB
:104090005B8D9BB2002B14D1FB7B292B11D17B684C
:1040A0001B685A687B681B6822F480625A607B68D0
:1040B00021221A637B68282283F83D207868FFF765
:1040C0006AFA00BF1037BD4680BD80B483B000AF30
:1040D00078607B685B8D9BB2002B11D07B685B6A3C
:1040E0001A787B681B681A617B685B6A5A1C7B685C
:1040F0005A627B685B8D9BB2013B9AB27B685A85A2
:1041000000BF0C37BD4680BC704780B584B000AF9F
:1041100078607B6893F83D30FB737B685B8D9BB266
:10412000002B2CD07B681B681A697B685B6AD2B253
:104130001A707B685B6A5A1C7B685A627B685B8D6D
:104140009BB2013B9AB27B685A857B685B8D9BB2C0
:10415000002B14D1FB7B2A2B11D17B681B685A687A
:104160007B681B6822F480625A607B6822221A6393
:104170007B68282283F83D207868FFF715FA00BF96
:104180001037BD4680BD80B483B000AF78607B68D7
:104190005B8D9BB2002B12D07B681B681A697B6811
:1041A0005B6AD2B21A707B685B6A5A1C7B685A627F
:1041B0007B685B8D9BB2013B9AB27B685A8500BFDE
:1041C0000C37BD4680BC704780B584B000AF7860C6
:1041D00039600023FB737B6893F83D30DBB203F05A
:1041E0002803282B27D17B681B685A687B681B68CB
:1041F00022F480625A603B689B0803F00103002BA5
:1042000001D10123FB733B68DB0903F00103002BA1
:1042100003D17B68DB68BB8102E07B689B69BB8163
:104220007B68002283F83C20BA89FB7B19467868BA
:10423000FFF7C3F908E07B681B686FF002025A6160
:104240007B68002283F83C2000BF1037BD4680BD4C
:1042500080B584B000AF78607B6893F83D30FB7325
:104260007B681B685A687B681B6822F4E0625A60AE
:104270000023BB607B681B685B69BB607B681B6855
:104280001A687B681B6842F001021A60BB687B6891
:104290001B681A687B681B6822F480621A607B685E
:1042A0001B685B6803F40063B3F5006F72D1FB7B9E
:1042B000222B02D0FB7B2A2B35D17B689B6B1B68A2
:1042C0005B689AB27B685A857B685B8D9BB2002BDA
:1042D00005D07B681B6C43F004027B681A647B6822
:1042E0001B685A687B681B6822F400625A607B680E
:1042F0009B6B1846FEF730F90346012B49D07B68CB
:104300009B6B694A5A637B689B6B1846FDF7E0FD1F
:104310000346002B3DD07B689B6B5B6B7A68926B8E
:104320001046984735E07B685B6B1B685B689AB208
:104330007B685A857B685B8D9BB2002B05D07B68C0
:104340001B6C43F004027B681A647B681B685A6824
:104350007B681B6822F400625A607B685B6B1846BE
:10436000FEF7FAF80346012B14D07B685B6B4E4ACC
:104370005A637B685B6B1846FDF7AAFD0346002B6A
:1043800008D07B685B6B5B6B7A68526B1046984712
:1043900000E000BF7B685B8D9BB2002B3ED07B684A
:1043A0001B685B6903F00403042B12D17B681B6854
:1043B0001A697B685B6AD2B21A707B685B6A5A1CA6
:1043C0007B685A627B685B8D9BB2013B9AB27B68CB
:1043D0005A857B681B685B6903F04003402B12D150
:1043E0007B681B681A697B685B6AD2B21A707B684B
:1043F0005B6A5A1C7B685A627B685B8D9BB2013B8F
:104400009AB27B685A857B685B8D9BB2002B05D086
:104410007B681B6C43F004027B681A647B681B6C2E
:10442000002B03D0786800F0B3F839E0FB7B2A2B2F
:1044300009D17B6800221A637B68282283F83D201B
:104440007868FFF7B1F87B6893F83D30DBB2282B32
:1044500011D17B68154ADA627B6800221A637B6897
:10446000202283F83D207B68002283F83E20786874
:10447000FFF7B0F814E07B681B6B222B02D0FB7BAC
:10448000222B0DD17B6800221A637B68202283F8DF
:104490003D207B68002283F83E207868FFF784F88F
:1044A00000BF1037BD4680BDBD4700080000FFFFBC
:1044B00080B584B000AF78607B6893F83D30FB73C3
:1044C0007B68DB6ABB60BB68082B02D0BB68202B13
:1044D00029D1FB7B282B26D17B682C4ADA627B68AA
:1044E0001B685A687B681B6822F4E0625A607B682C
:1044F0001B686FF480625A617B681B681A687B686E
:104500001B6822F480621A607B6800221A637B6851
:10451000202283F83D207B68002283F83E207868C3
:10452000FFF758F82EE0FB7B212B26D17B68174A3A
:10453000DA627B6821221A637B68202283F83D209F
:104540007B68002283F83E207B681B685A687B6882
:104550001B6822F4E0625A607B681B686FF480621B
:104560005A617B681B681A687B681B6822F480624A
:104570001A607868FFF70FF804E07B681B686FF437
:1045800080625A6100BF1037BD4680BD0000FFFF4A
:1045900080B584B000AF78607B6893F83D30FB73E2
:1045A0007B6893F83E30DBB2102B0AD1FB7B222BC9
:1045B00007D17B681B681A687B681B6822F400625D
:1045C0001A60FB7B03F02803282B07D17B680022AD
:1045D0001A637B68282283F83D2015E07B681B68FE
:1045E0005B6803F40063B3F5006F06D0FB7B602BC0
:1045F00003D07B68202283F83D207B6800221A6369
:104600007B68002283F83E207B681B685B6803F4AC
:104610000063B3F5006F61D17B681B685A687B68E3
:104620001B6822F400625A607B685B6B93F8213050
:10463000012B20D07B685B6B5E4A5A637B685B6BA7
:104640001846FDF745FC0346002B00F089807B6887
:104650001B681A687B681B6822F001021A607B687D
:10466000202283F83D207B685B6B5B6B7A68526B22
:104670001046984774E07B689B6B4E4A5A637B6890
:104680009B6B1846FDF724FC0346002B68D07B6823
:104690001B685B6903F04003402B0BD17B681B68F0
:1046A0001A697B685B6AD2B21A707B685B6A5A1CB3
:1046B0007B685A627B681B681A687B681B6822F0FB
:1046C00001021A607B68202283F83D207B689B6B87
:1046D0005B6B7A68926B1046984741E07B6893F871
:1046E0003D30DBB2602B25D17B68202283F83D2052
:1046F0007B6800221A647B681B685B6903F04003D7
:10470000402B0BD17B681B681A697B685B6AD2B24D
:104710001A707B685B6A5A1C7B685A627B681B68EC
:104720001A687B681B6822F001021A60786806F03C
:10473000B1FB15E07B681B685B6903F04003402B0D
:104740000BD17B681B681A697B685B6AD2B21A70EE
:104750007B685B6A5A1C7B685A62786806F08EFB3D
:104760007B6893F83D30FB737B681B6C03F004039C
:10477000042B1BD1FB7B282B18D17B681B685A6844
:104780007B681B6822F4E0625A607B680A4ADA623E
:104790007B6800221A637B68202283F83D207B68B7
:1047A000002283F83E207868FEF714FF00BF103720
:1047B000BD4680BDBD4700080000FFFF80B584B046
:1047C00000AF78607B685B6AFB60FB6893F83D3004
:1047D000FB72FB685B6B00229A62FB689B6B00229A
:1047E0009A62FB681B681A68FB681B6822F4806287
:1047F0001A60FB6800225A85FB685B6B00225A63D3
:10480000FB689B6B00225A63FB681B681A68FB6895
:104810001B6822F001021A60FB6893F83D30DBB29E
:10482000602B0ED1FB68202283F83D20FB6800221C
:1048300083F83E20FB6800221A64F86806F02AFB21
:1048400027E0FB7A03F02803282B17D1FB681B68AD
:104850001A68FB681B6842F001021A60FB681B685B
:104860001A68FB681B6842F480621A60FB680022C9
:104870001A63FB68282283F83D2007E0FB682022AA
:1048800083F83D20FB68002283F83E20F86806F09C
:10489000F5FA00BF1037BD4680BD80B483B000AFCD
:1048A00078607B68DB6AB3F52A0F03D17B6801224D
:1048B000DA6207E07B68DB6AB3F12A4F02D17B68DA
:1048C0000822DA6200BF0C37BD4680BC704700008A
:1048D00080B400AF034B01221A6000BFBD4680BC0C
:1048E000704700BF20000E4280B586B000AF7860F0
:1048F0007B68002B01D101236CE27B681B6803F00D
:104900000103002B00F08780924B5B6803F00C03DF
:10491000042B0CD08F4B5B6803F00C03082B12D1D7
:104920008C4B5B6803F48033B3F5803F0BD1894B2C
:104930001B6803F40033002B6CD07B685B68002B92
:1049400068D1012346E27B685B68B3F5803F06D1FE
:10495000804B1B687F4A43F4803313602EE07B68F2
:104960005B68002B0CD17B4B1B687A4A23F48033A5
:104970001360784B1B68774A23F4802313601DE093
:104980007B685B68B3F5A02F0CD1724B1B68714A32
:1049900043F4802313606F4B1B686E4A43F48033EB
:1049A00013600BE06B4B1B686A4A23F4803313607F
:1049B000684B1B68674A23F4802313607B685B683D
:1049C000002B13D0FCF732FC386108E0FCF72EFC1A
:1049D00002463B69D31A642B01D90323FAE15D4BEC
:1049E0001B6803F40033002BF0D014E0FCF71EFC2E
:1049F000386108E0FCF71AFC02463B69D31A642BC5
:104A000001D90323E6E1534B1B6803F40033002B69
:104A1000F0D100E000BF7B681B6803F00203002BAD
:104A200063D04C4B5B6803F00C03002B0BD0494B5D
:104A30005B6803F00C03082B1CD1464B5B6803F446
:104A40008033002B16D1434B1B6803F00203002B6D
:104A500005D07B681B69012B01D00123BAE13D4BD6
:104A60001B6823F0F8027B685B69DB00394913435C
:104A70000B603AE07B681B69002B20D0364B01228B
:104A80001A60FCF7D3FB386108E0FCF7CFFB024665
:104A90003B69D31A022B01D903239BE12D4B1B68E1
:104AA00003F00203002BF0D02A4B1B6823F0F8021E
:104AB0007B685B69DB00274913430B6015E0264BDD
:104AC00000221A60FCF7B2FB386108E0FCF7AEFB8D
:104AD00002463B69D31A022B01D903237AE11D4B0D
:104AE0001B6803F00203002BF0D17B681B6803F006
:104AF0000803002B3AD07B689B69002B19D0174B19
:104B000001221A60FCF792FB386108E0FCF78EFB8B
:104B100002463B69D31A022B01D903235AE10D4BFC
:104B20005B6A03F00203002BF0D0012000F008FBC9
:104B30001CE00A4B00221A60FCF778FB38610FE09A
:104B4000FCF774FB02463B69D31A022B08D90323F6
:104B500040E100BF00100240000042428004424297
:104B60009E4B5B6A03F00203002BE9D17B681B6854
:104B700003F00403002B00F0A6800023FB75974B85
:104B8000DB6903F08053002B0DD1944BDB69934A12
:104B900043F08053D361914BDB6903F08053BB60DA
:104BA000BB680123FB758E4B1B6803F48073002BDD
:104BB00018D18B4B1B688A4A43F480731360FCF74F
:104BC00035FB386108E0FCF731FB02463B69D31A3C
:104BD000642B01D90323FDE0814B1B6803F4807330
:104BE000002BF0D07B68DB68012B06D17B4B1B6A66
:104BF0007A4A43F0010313622DE07B68DB68002BE7
:104C00000CD1764B1B6A754A23F001031362734B78
:104C10001B6A724A23F0040313621CE07B68DB68A2
:104C2000052B0CD16D4B1B6A6C4A43F004031362D5
:104C30006A4B1B6A694A43F0010313620BE0674B3E
:104C40001B6A664A23F001031362644B1B6A634AC2
:104C500023F0040313627B68DB68002B15D0FCF79C
:104C6000E5FA38610AE0FCF7E1FA02463B69D31A3B
:104C700041F28832934201D90323ABE0574B1B6AC0
:104C800003F00203002BEED014E0FCF7CFFA3861FA
:104C90000AE0FCF7CBFA02463B69D31A41F28832AC
:104CA000934201D9032395E04C4B1B6A03F00203A6
:104CB000002BEED1FB7D012B05D1484BDB69474A28
:104CC00023F08053D3617B68DB69002B00F0818087
:104CD000424B5B6803F00C03082B61D07B68DB69F7
:104CE000022B46D13F4B00221A60FCF79FFA386135
:104CF00008E0FCF79BFA02463B69D31A022B01D964
:104D0000032367E0354B1B6803F00073002BF0D1E1
:104D10007B681B6AB3F5803F08D1304B5B6823F496
:104D200000327B689B682D4913434B602B4B5B68BB
:104D300023F474127B68196A7B685B6A0B4327490A
:104D400013434B60274B01221A60FCF76FFA38615E
:104D500008E0FCF76BFA02463B69D31A022B01D933
:104D6000032337E01D4B1B6803F00073002BF0D0CA
:104D70002FE01C4B00221A60FCF758FA386108E05B
:104D8000FCF754FA02463B69D31A022B01D90323DC
:104D900020E0124B1B6803F00073002BF0D118E0E9
:104DA0007B68DB69012B01D1012313E00B4B5B68AE
:104DB000FB60FB6803F480327B681B6A9A4206D171
:104DC000FB6803F470127B685B6A9A4201D001238E
:104DD00000E0002318461837BD4680BD0010024091
:104DE000007000406000424280B584B000AF78603F
:104DF00039607B68002B01D10123D0E06A4B1B682E
:104E000003F007033A689A4210D9674B1B6823F0F6
:104E1000070265493B6813430B60634B1B6803F053
:104E200007033A689A4201D00123B8E07B681B6807
:104E300003F00203002B20D07B681B6803F00403FF
:104E4000002B05D0594B5B68584A43F4E06353602C
:104E50007B681B6803F00803002B05D0534B5B688D
:104E6000524A43F460535360504B5B6823F0F002A6
:104E70007B689B684D4913434B607B681B6803F05C
:104E80000103002B40D07B685B68012B07D1474BA7
:104E90001B6803F40033002B15D101237FE07B68EE
:104EA0005B68022B07D1414B1B6803F00073002B9A
:104EB00009D1012373E03D4B1B6803F00203002B73
:104EC00001D101236BE0394B5B6823F003027B685F
:104ED0005B68364913434B60FCF7A8F9F8600AE0B9
:104EE000FCF7A4F90246FB68D31A41F288329342D8
:104EF00001D9032353E02D4B5B6803F00C027B6860
:104F00005B689B009A42EBD1274B1B6803F00703B9
:104F10003A689A4210D2244B1B6823F007022249B8
:104F20003B6813430B60204B1B6803F007033A6890
:104F30009A4201D0012332E07B681B6803F004032E
:104F4000002B08D0194B5B6823F4E0627B68DB68B8
:104F5000164913434B607B681B6803F00803002B62
:104F600009D0124B5B6823F460527B681B69DB003D
:104F70000E4913434B6000F021F802460B4B5B686F
:104F80001B0903F00F030A49CB5C22FA03F3094A19
:104F90001360094B1B68184608F096FC002318465E
:104FA0001037BD4680BD00BF002002400010024007
:104FB000C8FE00083C0000200000002090B48AB029
:104FC00000AF2A4B3C1D0FCB84E80F0040F20123B9
:104FD0003B800023FB610023BB6100237B62002335
:104FE0007B6100233B62224B5B68FB61FB6903F042
:104FF0000C03042B02D0082B03D02DE01D4B3B6289
:105000002DE0FB699B0C03F00F0307F1280213440A
:1050100013F8243C7B61FB6903F48033002B13D02D
:10502000134B5B685B0C03F0010307F12802134488
:1050300013F8283CBB617B690E4A02FB03F2BB6993
:10504000B2FBF3F37B6204E07B690B4A02FB03F3E0
:105050007B627B6A3B6202E0064B3B6200BF3B6ABD
:1050600018462837BD4690BC704700BF08FB0008B3
:105070000010024000127A0000093D0080B400AF29
:10508000024B1B681846BD4680BC70473C000020A0
:1050900080B500AFFFF7F2FF0246054B5B681B0AC5
:1050A00003F007030349CB5C22FA03F3184680BDE3
:1050B00000100240D8FE000880B500AFFFF7DEFF09
:1050C0000246054B5B68DB0A03F007030349CB5C30
:1050D00022FA03F3184680BD00100240D8FE0008F3
:1050E00080B483B000AF786039607B680F221A60AB
:1050F000114B5B6803F003027B685A600E4B5B68E0
:1051000003F0F0027B689A600B4B5B6803F4E0628B
:105110007B68DA60084B5B68DB0803F4E0627B685D
:105120001A61064B1B6803F007023B681A6000BF58
:105130000C37BD4680BC7047001002400020024082
:1051400080B485B000AF78600A4B1B680A4AA2FBA6
:1051500003235B0A7A6802FB03F3FB6000BFFB6872
:105160005A1EFA60002BF9D100BF00BF1437BD46AC
:1051700080BC70473C000020D34D621080B586B0E3
:1051800000AF786000233B610023FB607B681B68F5
:1051900003F00103002B7DD00023FB754F4BDB692F
:1051A00003F08053002B0DD14C4BDB694B4A43F08D
:1051B0008053D361494BDB6903F08053BB60BB680C
:1051C0000123FB75464B1B6803F48073002B18D139
:1051D000434B1B68424A43F480731360FCF726F884
:1051E000386108E0FCF722F802463B69D31A642BC9
:1051F00001D903236DE03A4B1B6803F48073002B45
:10520000F0D0364B1B6A03F44073FB60FB68002B45
:105210002ED07B685B6803F44073FA689A4227D00B
:105220002E4B1B6A23F44073FB602E4B01221A6045
:105230002C4B00221A60294AFB681362FB6803F0BA
:105240000103002B14D0FBF7F1FF38610AE0FBF7F4
:10525000EDFF02463B69D31A41F28832934201D9ED
:10526000032336E01D4B1B6A03F00203002BEED034
:105270001A4B1B6A23F440727B685B68174913431F
:105280000B62FB7D012B05D1144BDB69134A23F024
:105290008053D3617B681B6803F00203002B08D0A6
:1052A0000E4B5B6823F440427B689B680B491343B9
:1052B0004B607B681B6803F01003002B08D0074B82
:1052C0005B6823F480027B685B69044913434B608D
:1052D000002318461837BD4680BD00BF00100240AD
:1052E000007000404004424290B58DB000AF78603D
:1052F0006B4B07F10C040FCB84E80F0040F2012345
:105300003B8100237B620023FB6200233B6200237E
:10531000FB610023BB627B68013B0F2B00F2B68070
:1053200001A252F823F000BF0B540008715400088A
:105330008D540008FB5300088D5400088D5400085C
:105340008D540008035400088D5400088D54000843
:105350008D5400088D5400088D5400088D540008A9
:105360008D540008695300084E4B5B68FB614D4B40
:105370001B6803F08073002B00F08A80FB699B0C94
:1053800003F00F0307F13002134413F8243C3B628F
:10539000FB6903F48033002B18D0424B5B685B0C35
:1053A00003F0010307F13002134413F8283C7B6239
:1053B000FB6903F48033002B0DD03B4A7B6AB2FBC0
:1053C000F3F23B6A02FB03F3FB6204E03B6A374AF9
:1053D00002FB03F3FB62334B5B6803F48003B3F51A
:1053E000800F02D1FB6ABB6252E0FB6A5B00304A6D
:1053F000A2FB03235B08BB624AE0FFF7DFFDB86254
:1054000049E0FFF7DBFDB86245E0264B1B6AFB6114
:10541000FB6903F44073B3F5807F08D1FB6903F0A7
:105420000203002B03D04FF40043BB621FE0FB6973
:1054300003F44073B3F5007F09D11A4B5B6A03F0A4
:105440000203002B03D049F64043BB620FE0FB6927
:1054500003F44073B3F5407F1CD1124B1B6803F477
:105460000033002B16D04FF22443BB6212E011E050
:10547000FFF722FE02460B4B5B689B0B03F0030316
:1054800001335B00B2FBF3F3BB6204E000BF02E058
:1054900000BF00E000BFBB6A18463437BD4690BD70
:1054A00018FB00080010024000127A0000093D00BD
:1054B000ABAAAAAA80B584B000AF78600023FB60D5
:1054C0007B68002B01D1012384E07B685B7CDBB22D
:1054D000002B05D17B6800221A74786808F084F9E3
:1054E0007B6802225A74786800F0A0FA0346002B09
:1054F00004D07B6804225A7401236BE0786800F0C2
:1055000059FB0346002B04D07B6804225A74012304
:1055100060E07B681B685A687B681B6822F00702A2
:105520005A607B689B68002B05D02C4B1B6B2B4A69
:1055300023F001031363294BDB6A23F460727B6859
:105540009B6826491343CB627B685B68B3F1FF3FDE
:1055500003D07B685B68FB600EE00120FFF7C4FEB0
:10556000F860FB68002B04D17B6804225A74012385
:1055700030E0FB68013BFB607B681B689B6823F0A5
:105580000F01FB681A0C7B681B680A439A607B68F2
:105590001B68DB681B0C1B04FA6891B27A681268FE
:1055A0000B43D360786800F02DFB0346002B04D03A
:1055B0007B6804225A7401230CE07B680022DA73B2
:1055C0007B6801225A737B6801229A737B680122EF
:1055D0005A74002318461037BD4680BD006C004049
:1055E00090B587B000AFF860B9607A6000237B6146
:1055F00000233B61FB68002B02D0BB68002B01D16C
:10560000012380E0FB681B7C012B01D102237AE09F
:10561000FB6801221A74FB6802225A747B68002B13
:1056200013D1BB681B781A464FF4616303FB02F287
:10563000BB685B7819460B461B015B1A9B00134441
:10564000BA68927813447B611EE0BB681B781846E9
:1056500000F01DFB03461A464FF4616303FB02F49E
:10566000BB685B78184600F012FB03461A461346E7
:105670001B019B1A9B001C44BB689B78184600F0DA
:1056800006FB034623447B617969F86800F02BFA36
:105690000346002B07D0FB6804225A74FB680022E3
:1056A0001A7401232FE0FB681B685A68FB681B68AB
:1056B00022F005025A60F86800F03CFA38613B6954
:1056C000B3F1FF3F18D03A697B699A4214D23B6923
:1056D00003F5A83303F5C0733B613969F86800F03E
:1056E00042FA0346002B07D0FB6804225A74FB6879
:1056F00000221A74012306E0FB6801225A74FB6839
:1057000000221A74002318461C37BD4690BD0000C5
:1057100080B588B000AFF860B9607A600023BB61E3
:105720000023FB6100237B6100233B61FB68002BAE
:1057300002D0BB68002B01D10123B5E0FB681B68D8
:105740005B6803F00403002B01D00123ACE0F86890
:1057500000F099F9B861BB69554AA2FB0323DB0A43
:105760003B61BA69524BA3FB0213DB0A4FF4616140
:1057700001FB03F3D31A4F4AA2FB03235B09DAB2FE
:10578000BB685A70BB694A4AA2FB0312D20A4FF4A3
:10579000616101FB02F29A1A464BA3FB02135909FD
:1057A0000B461B015B1A9B00D11ACAB2BB689A70E8
:1057B0003B69172B55D93B693F4AA2FB03231B09C1
:1057C0007B6139693C4BA3FB01231A0913465B003B
:1057D0001344DB00CA1AD2B2BB681A70F86800F032
:1057E000A9F9F861FB69B3F1FF3F08D0FA69BB6919
:1057F0009A4204D9FA69BB69D31AFB6102E04FF0FF
:10580000FF33FB617B692D4A02FB03F3BA69D31AAC
:10581000BB61B969F86800F066F90346002B01D056
:10582000012341E0FB69B3F1FF3F0CD0FA69BB698A
:105830001344FB61F969F86800F095F90346002B01
:105840000AD0012330E0F969F86800F08CF90346CA
:10585000002B01D0012327E07969F86800F034FAC1
:1058600003E03B69DAB2BB681A707B68002B1AD080
:10587000BB681B78184600F0EDF903461A46BB6872
:105880001A70BB685B78184600F0E4F903461A46C4
:10589000BB685A70BB689B78184600F0DBF903467A
:1058A0001A46BB689A70002318462037BD4680BD53
:1058B000C5B3A29189888888ABAAAAAA80510100A1
:1058C00080B588B000AFF860B9607A600023FB61F2
:1058D0000023BB6100237B61FB68002B02D0BB6807
:1058E000002B01D1012397E0FB681B7C012B01D128
:1058F000022391E0FB6801221A74FB6802225A74A9
:105900007B68002B0CD1BB68DA78FB68DA73BB6864
:105910005A78FB685A73BB689A78FB689A731AE0E6
:10592000BB68DB78184600F0B2F903461A46FB68FC
:10593000DA73BB685B78184600F0A9F903461A468B
:10594000FB685A73BB689B78184600F0A0F90346C1
:105950001A46FB689A73FB68DB7B1846FB68597B29
:10596000FB689B7B1A4600F08BFA03461A46FB68DD
:105970001A73FB681A7BBB681A70F86800F083F82A
:10598000F861FB69264AA2FB0323DB0A7B617B6982
:10599000182B3AD97B69234AA2FB03231B09224A0D
:1059A00002FB03F3FA69D31AFB61F969F86800F0A6
:1059B0009AF80346002B07D0FB6804225A74FB6850
:1059C00000221A74012327E0F86800F0B3F8B861E8
:1059D000BB69B3F1FF3F18D0BA69FB699A4214D290
:1059E000BB6903F5A83303F5C073BB61B969F868F7
:1059F00000F0B9F80346002B07D0FB6804225A7464
:105A0000FB6800221A74012306E0FB6801225A7425
:105A1000FB6800221A74002318462037BD4680BD5B
:105A2000C5B3A291ABAAAAAA8051010080B584B0E7
:105A300000AF78600023FB607B68002B01D101235D
:105A40001DE07B681B685A687B681B6822F00802AF
:105A50005A60FBF7EBFBF86009E0FBF7E7FB024657
:105A6000FB68D31AB3F57A7F01D9032307E07B687B
:105A70001B685B6803F00803002BEED00023184678
:105A80001037BD4680BD80B487B000AF786000237A
:105A90007B8200233B820023FB8100237B617B68A8
:105AA0001B689B697B827B681B68DB69FB817B6869
:105AB0001B689B693B827A8A3B8A9A4208D03B8A60
:105AC0001A047B681B68DB699BB213437B6104E0AB
:105AD0007B8A1A04FB8913437B617B6918461C3758
